{
  "_format": "hh-sol-artifact-1",
  "contractName": "priceClient",
  "sourceName": "contracts/lib/platform/priceClient.sol",
  "abi": [
    {
      "constant": true,
      "inputs": [
        {
          "name": "",
          "type": "uint256"
        }
      ],
      "name": "queryIDs",
      "outputs": [
        {
          "name": "",
          "type": "uint256"
        }
      ],
      "payable": false,
      "stateMutability": "view",
      "type": "function"
    },
    {
      "constant": false,
      "inputs": [
        {
          "name": "oracleAddr",
          "type": "address"
        },
        {
          "name": "query",
          "type": "string"
        },
        {
          "name": "specifier",
          "type": "bytes32"
        },
        {
          "name": "params",
          "type": "bytes32[]"
        }
      ],
      "name": "updateQuery",
      "outputs": [],
      "payable": false,
      "stateMutability": "nonpayable",
      "type": "function"
    },
    {
      "constant": true,
      "inputs": [],
      "name": "DataQuery",
      "outputs": [
        {
          "name": "",
          "type": "string"
        }
      ],
      "payable": false,
      "stateMutability": "view",
      "type": "function"
    },
    {
      "constant": true,
      "inputs": [
        {
          "name": "",
          "type": "uint256"
        }
      ],
      "name": "priceTimeStamps",
      "outputs": [
        {
          "name": "",
          "type": "uint256"
        }
      ],
      "payable": false,
      "stateMutability": "view",
      "type": "function"
    },
    {
      "constant": true,
      "inputs": [],
      "name": "totalBytes32Queries",
      "outputs": [
        {
          "name": "",
          "type": "uint256"
        }
      ],
      "payable": false,
      "stateMutability": "view",
      "type": "function"
    },
    {
      "constant": true,
      "inputs": [
        {
          "name": "",
          "type": "uint256"
        }
      ],
      "name": "queryIntIDs",
      "outputs": [
        {
          "name": "",
          "type": "uint256"
        }
      ],
      "payable": false,
      "stateMutability": "view",
      "type": "function"
    },
    {
      "constant": true,
      "inputs": [
        {
          "name": "",
          "type": "uint256"
        },
        {
          "name": "",
          "type": "uint256"
        }
      ],
      "name": "queryBytes32Results",
      "outputs": [
        {
          "name": "",
          "type": "bytes32"
        }
      ],
      "payable": false,
      "stateMutability": "view",
      "type": "function"
    },
    {
      "constant": true,
      "inputs": [],
      "name": "totalIntQueries",
      "outputs": [
        {
          "name": "",
          "type": "uint256"
        }
      ],
      "payable": false,
      "stateMutability": "view",
      "type": "function"
    },
    {
      "constant": false,
      "inputs": [
        {
          "name": "id",
          "type": "uint256"
        }
      ],
      "name": "cancelQuery",
      "outputs": [],
      "payable": false,
      "stateMutability": "nonpayable",
      "type": "function"
    },
    {
      "constant": true,
      "inputs": [
        {
          "name": "",
          "type": "uint256"
        }
      ],
      "name": "queryParams",
      "outputs": [
        {
          "name": "",
          "type": "bytes32"
        }
      ],
      "payable": false,
      "stateMutability": "view",
      "type": "function"
    },
    {
      "constant": true,
      "inputs": [],
      "name": "oracle",
      "outputs": [
        {
          "name": "",
          "type": "address"
        }
      ],
      "payable": false,
      "stateMutability": "view",
      "type": "function"
    },
    {
      "constant": true,
      "inputs": [
        {
          "name": "",
          "type": "uint256"
        }
      ],
      "name": "queryResults",
      "outputs": [
        {
          "name": "",
          "type": "string"
        }
      ],
      "payable": false,
      "stateMutability": "view",
      "type": "function"
    },
    {
      "constant": true,
      "inputs": [],
      "name": "totalQueries",
      "outputs": [
        {
          "name": "",
          "type": "uint256"
        }
      ],
      "payable": false,
      "stateMutability": "view",
      "type": "function"
    },
    {
      "constant": true,
      "inputs": [],
      "name": "querySpec",
      "outputs": [
        {
          "name": "",
          "type": "bytes32"
        }
      ],
      "payable": false,
      "stateMutability": "view",
      "type": "function"
    },
    {
      "constant": true,
      "inputs": [],
      "name": "owner",
      "outputs": [
        {
          "name": "",
          "type": "address"
        }
      ],
      "payable": false,
      "stateMutability": "view",
      "type": "function"
    },
    {
      "constant": false,
      "inputs": [
        {
          "name": "id",
          "type": "uint256"
        },
        {
          "name": "response",
          "type": "int256[]"
        }
      ],
      "name": "callback",
      "outputs": [],
      "payable": false,
      "stateMutability": "nonpayable",
      "type": "function"
    },
    {
      "constant": true,
      "inputs": [],
      "name": "latestPrice",
      "outputs": [
        {
          "name": "",
          "type": "uint256"
        },
        {
          "name": "",
          "type": "uint256"
        },
        {
          "name": "",
          "type": "uint256"
        }
      ],
      "payable": false,
      "stateMutability": "view",
      "type": "function"
    },
    {
      "constant": true,
      "inputs": [
        {
          "name": "",
          "type": "uint256"
        }
      ],
      "name": "priceResults",
      "outputs": [
        {
          "name": "",
          "type": "uint256"
        }
      ],
      "payable": false,
      "stateMutability": "view",
      "type": "function"
    },
    {
      "constant": true,
      "inputs": [],
      "name": "returnPriceQueries",
      "outputs": [
        {
          "name": "",
          "type": "uint256[]"
        },
        {
          "name": "",
          "type": "uint256[]"
        },
        {
          "name": "",
          "type": "uint256[]"
        }
      ],
      "payable": false,
      "stateMutability": "view",
      "type": "function"
    },
    {
      "constant": true,
      "inputs": [
        {
          "name": "",
          "type": "uint256"
        }
      ],
      "name": "queryBytes32IDs",
      "outputs": [
        {
          "name": "",
          "type": "uint256"
        }
      ],
      "payable": false,
      "stateMutability": "view",
      "type": "function"
    },
    {
      "constant": false,
      "inputs": [],
      "name": "initPriceQuery",
      "outputs": [
        {
          "name": "",
          "type": "uint256"
        }
      ],
      "payable": false,
      "stateMutability": "nonpayable",
      "type": "function"
    },
    {
      "constant": false,
      "inputs": [
        {
          "name": "newOwner",
          "type": "address"
        }
      ],
      "name": "transferOwnership",
      "outputs": [],
      "payable": false,
      "stateMutability": "nonpayable",
      "type": "function"
    },
    {
      "constant": false,
      "inputs": [],
      "name": "delegateBond",
      "outputs": [],
      "payable": false,
      "stateMutability": "nonpayable",
      "type": "function"
    },
    {
      "constant": true,
      "inputs": [
        {
          "name": "",
          "type": "uint256"
        }
      ],
      "name": "priceQueryIDs",
      "outputs": [
        {
          "name": "",
          "type": "uint256"
        }
      ],
      "payable": false,
      "stateMutability": "view",
      "type": "function"
    },
    {
      "inputs": [
        {
          "name": "tokenAddress",
          "type": "address"
        },
        {
          "name": "dispatchAddress",
          "type": "address"
        },
        {
          "name": "bondageAddress",
          "type": "address"
        },
        {
          "name": "registryAddress",
          "type": "address"
        },
        {
          "name": "oracleAddr",
          "type": "address"
        },
        {
          "name": "query",
          "type": "string"
        },
        {
          "name": "specifier",
          "type": "bytes32"
        },
        {
          "name": "params",
          "type": "bytes32[]"
        }
      ],
      "payable": false,
      "stateMutability": "nonpayable",
      "type": "constructor"
    },
    {
      "anonymous": false,
      "inputs": [
        {
          "indexed": false,
          "name": "oracle",
          "type": "address"
        },
        {
          "indexed": false,
          "name": "query",
          "type": "string"
        },
        {
          "indexed": false,
          "name": "id",
          "type": "uint256"
        }
      ],
      "name": "MadeQuery",
      "type": "event"
    },
    {
      "anonymous": false,
      "inputs": [
        {
          "indexed": false,
          "name": "id",
          "type": "uint256"
        },
        {
          "indexed": false,
          "name": "response1",
          "type": "string"
        }
      ],
      "name": "Result1",
      "type": "event"
    },
    {
      "anonymous": false,
      "inputs": [
        {
          "indexed": false,
          "name": "id",
          "type": "uint256"
        },
        {
          "indexed": false,
          "name": "response1",
          "type": "bytes32"
        }
      ],
      "name": "Result32",
      "type": "event"
    },
    {
      "anonymous": false,
      "inputs": [
        {
          "indexed": false,
          "name": "id",
          "type": "uint256"
        },
        {
          "indexed": false,
          "name": "response1",
          "type": "string"
        },
        {
          "indexed": false,
          "name": "response2",
          "type": "string"
        }
      ],
      "name": "Result2",
      "type": "event"
    },
    {
      "anonymous": false,
      "inputs": [
        {
          "indexed": false,
          "name": "id",
          "type": "uint256"
        },
        {
          "indexed": false,
          "name": "response3",
          "type": "int256[]"
        }
      ],
      "name": "Result3",
      "type": "event"
    },
    {
      "anonymous": false,
      "inputs": [
        {
          "indexed": true,
          "name": "previousOwner",
          "type": "address"
        },
        {
          "indexed": true,
          "name": "newOwner",
          "type": "address"
        }
      ],
      "name": "OwnershipTransferred",
      "type": "event"
    }
  ],
  "bytecode": "0x60806040523480156200001157600080fd5b5060405162001d5c38038062001d5c83398101806040526101008110156200003857600080fd5b81019080805190602001909291908051906020019092919080519060200190929190805190602001909291908051906020019092919080516401000000008111156200008357600080fd5b828101905060208101848111156200009a57600080fd5b8151856001820283011164010000000082111715620000b857600080fd5b5050929190602001805190602001909291908051640100000000811115620000df57600080fd5b82810190506020810184811115620000f657600080fd5b81518560208202830111640100000000821117156200011457600080fd5b5050929190505050336000806101000a81548173ffffffffffffffffffffffffffffffffffffffff021916908373ffffffffffffffffffffffffffffffffffffffff16021790555087601060006101000a81548173ffffffffffffffffffffffffffffffffffffffff021916908373ffffffffffffffffffffffffffffffffffffffff16021790555086601160006101000a81548173ffffffffffffffffffffffffffffffffffffffff021916908373ffffffffffffffffffffffffffffffffffffffff16021790555085601260006101000a81548173ffffffffffffffffffffffffffffffffffffffff021916908373ffffffffffffffffffffffffffffffffffffffff16021790555084601360006101000a81548173ffffffffffffffffffffffffffffffffffffffff021916908373ffffffffffffffffffffffffffffffffffffffff16021790555083600960006101000a81548173ffffffffffffffffffffffffffffffffffffffff021916908373ffffffffffffffffffffffffffffffffffffffff16021790555082600a9080519060200190620002b9929190620002e8565b5081600b8190555080600c9080519060200190620002d99291906200036f565b50505050505050505062000411565b828054600181600116156101000203166002900490600052602060002090601f016020900481019282601f106200032b57805160ff19168380011785556200035c565b828001600101855582156200035c579182015b828111156200035b5782518255916020019190600101906200033e565b5b5090506200036b9190620003c1565b5090565b828054828255906000526020600020908101928215620003ae579160200282015b82811115620003ad57825182559160200191906001019062000390565b5b509050620003bd9190620003e9565b5090565b620003e691905b80821115620003e2576000816000905550600101620003c8565b5090565b90565b6200040e91905b808211156200040a576000816000905550600101620003f0565b5090565b90565b61193b80620004216000396000f3fe608060405260043610610138576000357c0100000000000000000000000000000000000000000000000000000000900480633236f8b11461013d578063383b9f631461018c578063490494241461031257806355ad3e74146103a257806357e4933e146103f15780635d91521e1461041c5780635eb491321461046b57806370acb749146104c45780637237dc0b146104ef57806376c7bb1d1461052a5780637dc0d1d01461057957806384593baa146105d057806385ba7fc31461068457806388bd6575146106af5780638da5cb5b146106da57806399ff48af14610731578063a3e6ba94146107c1578063d5ba3d0d146107fa578063e1f53f1614610849578063e7cc098f14610945578063ed24d5c514610994578063f2fde38b146109bf578063f4e0f02b14610a10578063fc79e99d14610a27575b600080fd5b34801561014957600080fd5b506101766004803603602081101561016057600080fd5b8101908080359060200190929190505050610a76565b6040518082815260200191505060405180910390f35b34801561019857600080fd5b50610310600480360360808110156101af57600080fd5b81019080803573ffffffffffffffffffffffffffffffffffffffff169060200190929190803590602001906401000000008111156101ec57600080fd5b8201836020820111156101fe57600080fd5b8035906020019184600183028401116401000000008311171561022057600080fd5b91908080601f016020809104026020016040519081016040528093929190818152602001838380828437600081840152601f19601f820116905080830192505050505050509192919290803590602001909291908035906020019064010000000081111561028d57600080fd5b82018360208201111561029f57600080fd5b803590602001918460208302840111640100000000831117156102c157600080fd5b919080806020026020016040519081016040528093929190818152602001838360200280828437600081840152601f19601f820116905080830192505050505050509192919290505050610a8e565b005b34801561031e57600080fd5b50610327610b65565b6040518080602001828103825283818151815260200191508051906020019080838360005b8381101561036757808201518184015260208101905061034c565b50505050905090810190601f1680156103945780820380516001836020036101000a031916815260200191505b509250505060405180910390f35b3480156103ae57600080fd5b506103db600480360360208110156103c557600080fd5b8101908080359060200190929190505050610c03565b6040518082815260200191505060405180910390f35b3480156103fd57600080fd5b50610406610c26565b6040518082815260200191505060405180910390f35b34801561042857600080fd5b506104556004803603602081101561043f57600080fd5b8101908080359060200190929190505050610c2c565b6040518082815260200191505060405180910390f35b34801561047757600080fd5b506104ae6004803603604081101561048e57600080fd5b810190808035906020019092919080359060200190929190505050610c44565b6040518082815260200191505060405180910390f35b3480156104d057600080fd5b506104d9610c74565b6040518082815260200191505060405180910390f35b3480156104fb57600080fd5b506105286004803603602081101561051257600080fd5b8101908080359060200190929190505050610c7a565b005b34801561053657600080fd5b506105636004803603602081101561054d57600080fd5b8101908080359060200190929190505050610d81565b6040518082815260200191505060405180910390f35b34801561058557600080fd5b5061058e610da4565b604051808273ffffffffffffffffffffffffffffffffffffffff1673ffffffffffffffffffffffffffffffffffffffff16815260200191505060405180910390f35b3480156105dc57600080fd5b50610609600480360360208110156105f357600080fd5b8101908080359060200190929190505050610dca565b6040518080602001828103825283818151815260200191508051906020019080838360005b8381101561064957808201518184015260208101905061062e565b50505050905090810190601f1680156106765780820380516001836020036101000a031916815260200191505b509250505060405180910390f35b34801561069057600080fd5b50610699610e7a565b6040518082815260200191505060405180910390f35b3480156106bb57600080fd5b506106c4610e80565b6040518082815260200191505060405180910390f35b3480156106e657600080fd5b506106ef610e86565b604051808273ffffffffffffffffffffffffffffffffffffffff1673ffffffffffffffffffffffffffffffffffffffff16815260200191505060405180910390f35b34801561073d57600080fd5b506107bf6004803603604081101561075457600080fd5b81019080803590602001909291908035906020019064010000000081111561077b57600080fd5b82018360208201111561078d57600080fd5b803590602001918460208302840111640100000000831117156107af57600080fd5b9091929391929390505050610eab565b005b3480156107cd57600080fd5b506107d6611155565b60405180848152602001838152602001828152602001935050505060405180910390f35b34801561080657600080fd5b506108336004803603602081101561081d57600080fd5b81019080803590602001909291905050506111c2565b6040518082815260200191505060405180910390f35b34801561085557600080fd5b5061085e6111e5565b60405180806020018060200180602001848103845287818151815260200191508051906020019060200280838360005b838110156108a957808201518184015260208101905061088e565b50505050905001848103835286818151815260200191508051906020019060200280838360005b838110156108eb5780820151818401526020810190506108d0565b50505050905001848103825285818151815260200191508051906020019060200280838360005b8381101561092d578082015181840152602081019050610912565b50505050905001965050505050505060405180910390f35b34801561095157600080fd5b5061097e6004803603602081101561096857600080fd5b81019080803590602001909291905050506112f1565b6040518082815260200191505060405180910390f35b3480156109a057600080fd5b506109a9611309565b6040518082815260200191505060405180910390f35b3480156109cb57600080fd5b50610a0e600480360360208110156109e257600080fd5b81019080803573ffffffffffffffffffffffffffffffffffffffff169060200190929190505050611623565b005b348015610a1c57600080fd5b50610a25611778565b005b348015610a3357600080fd5b50610a6060048036036020811015610a4a57600080fd5b81019080803590602001909291905050506117d5565b6040518082815260200191505060405180910390f35b60086020528060005260406000206000915090505481565b6000809054906101000a900473ffffffffffffffffffffffffffffffffffffffff1673ffffffffffffffffffffffffffffffffffffffff163373ffffffffffffffffffffffffffffffffffffffff16141515610ae957600080fd5b83600960006101000a81548173ffffffffffffffffffffffffffffffffffffffff021916908373ffffffffffffffffffffffffffffffffffffffff16021790555082600a9080519060200190610b409291906117f8565b5081600b8190555080600c9080519060200190610b5e929190611878565b5050505050565b600a8054600181600116156101000203166002900480601f016020809104026020016040519081016040528092919081815260200182805460018160011615610100020316600290048015610bfb5780601f10610bd057610100808354040283529160200191610bfb565b820191906000526020600020905b815481529060010190602001808311610bde57829003601f168201915b505050505081565b600481815481101515610c1257fe5b906000526020600020016000915090505481565b600f5481565b60076020528060005260406000206000915090505481565b600260205281600052604060002081815481101515610c5f57fe5b90600052602060002001600091509150505481565b600e5481565b6000809054906101000a900473ffffffffffffffffffffffffffffffffffffffff1673ffffffffffffffffffffffffffffffffffffffff163373ffffffffffffffffffffffffffffffffffffffff16141515610cd557600080fd5b601160009054906101000a900473ffffffffffffffffffffffffffffffffffffffff1673ffffffffffffffffffffffffffffffffffffffff16637237dc0b826040518263ffffffff167c010000000000000000000000000000000000000000000000000000000002815260040180828152602001915050600060405180830381600087803b158015610d6657600080fd5b505af1158015610d7a573d6000803e3d6000fd5b5050505050565b600c81815481101515610d9057fe5b906000526020600020016000915090505481565b600960009054906101000a900473ffffffffffffffffffffffffffffffffffffffff1681565b60016020528060005260406000206000915090508054600181600116156101000203166002900480601f016020809104026020016040519081016040528092919081815260200182805460018160011615610100020316600290048015610e725780601f10610e4757610100808354040283529160200191610e72565b820191906000526020600020905b815481529060010190602001808311610e5557829003601f168201915b505050505081565b600d5481565b600b5481565b6000809054906101000a900473ffffffffffffffffffffffffffffffffffffffff1681565b601160009054906101000a900473ffffffffffffffffffffffffffffffffffffffff1673ffffffffffffffffffffffffffffffffffffffff163373ffffffffffffffffffffffffffffffffffffffff16141515610f96576040517f08c379a00000000000000000000000000000000000000000000000000000000081526004018080602001828103825260218152602001807f63616c6c6572206d75737420746865206469737061746368206164647265737381526020017f200000000000000000000000000000000000000000000000000000000000000081525060400191505060405180910390fd5b600182829050141515611037576040517f08c379a000000000000000000000000000000000000000000000000000000000815260040180806020018281038252602d8152602001807f696e74207265736f6f6e7365206d7573742068617665206c656e677468206f6681526020017f203120666f72207072696365730000000000000000000000000000000000000081525060400191505060405180910390fd5b7ff19b1dfbe49623242da1b9f78d3d9d132ee8a19ca13a4e7de836c781a49b402d83838360405180848152602001806020018281038252848482818152602001925060200280828437600081840152601f19601f82011690508083019250505094505050505060405180910390a160038282600081811015156110b657fe5b90506020020135908060018154018082558091505090600182039060005260206000200160009091929091909150555060044290806001815401808255809150509060018203906000526020600020016000909192909190915055506005839080600181540180825580915050906001820390600052602060002001600090919290919091505550600e60008154809291906001019190505550505050565b600080600060036001600e540381548110151561116e57fe5b906000526020600020015460046001600e540381548110151561118d57fe5b906000526020600020015460056001600e54038154811015156111ac57fe5b9060005260206000200154925092509250909192565b6003818154811015156111d157fe5b906000526020600020016000915090505481565b60608060606003600460058280548060200260200160405190810160405280929190818152602001828054801561123b57602002820191906000526020600020905b815481526020019060010190808311611227575b505050505092508180548060200260200160405190810160405280929190818152602001828054801561128d57602002820191906000526020600020905b815481526020019060010190808311611279575b50505050509150808054806020026020016040519081016040528092919081815260200182805480156112df57602002820191906000526020600020905b8154815260200190600101908083116112cb575b50505050509050925092509250909192565b60066020528060005260406000206000915090505481565b600080601160009054906101000a900473ffffffffffffffffffffffffffffffffffffffff1673ffffffffffffffffffffffffffffffffffffffff16637de7cc66600960009054906101000a900473ffffffffffffffffffffffffffffffffffffffff16600a600b54600c6040518563ffffffff167c0100000000000000000000000000000000000000000000000000000000028152600401808573ffffffffffffffffffffffffffffffffffffffff1673ffffffffffffffffffffffffffffffffffffffff16815260200180602001848152602001806020018381038352868181546001816001161561010002031660029004815260200191508054600181600116156101000203166002900480156114645780601f1061143957610100808354040283529160200191611464565b820191906000526020600020905b81548152906001019060200180831161144757829003601f168201915b505083810382528481815481526020019150805480156114a357602002820191906000526020600020905b81548152602001906001019080831161148f575b50509650505050505050602060405180830381600087803b1580156114c757600080fd5b505af11580156114db573d6000803e3d6000fd5b505050506040513d60208110156114f157600080fd5b810190808051906020019092919050505090507f50b551167947510d4c64636aac23b675db7849e6e7c824e4cf5830c3400e98a0600960009054906101000a900473ffffffffffffffffffffffffffffffffffffffff16600a83604051808473ffffffffffffffffffffffffffffffffffffffff1673ffffffffffffffffffffffffffffffffffffffff1681526020018060200183815260200182810382528481815460018160011615610100020316600290048152602001915080546001816001161561010002031660029004801561160c5780601f106115e15761010080835404028352916020019161160c565b820191906000526020600020905b8154815290600101906020018083116115ef57829003601f168201915b505094505050505060405180910390a18091505090565b6000809054906101000a900473ffffffffffffffffffffffffffffffffffffffff1673ffffffffffffffffffffffffffffffffffffffff163373ffffffffffffffffffffffffffffffffffffffff1614151561167e57600080fd5b600073ffffffffffffffffffffffffffffffffffffffff168173ffffffffffffffffffffffffffffffffffffffff16141515156116ba57600080fd5b8073ffffffffffffffffffffffffffffffffffffffff166000809054906101000a900473ffffffffffffffffffffffffffffffffffffffff1673ffffffffffffffffffffffffffffffffffffffff167f8be0079c531659141344cd1fd0a4f28419497f9722a3daafe3b4186f6b6457e060405160405180910390a3806000806101000a81548173ffffffffffffffffffffffffffffffffffffffff021916908373ffffffffffffffffffffffffffffffffffffffff16021790555050565b6000809054906101000a900473ffffffffffffffffffffffffffffffffffffffff1673ffffffffffffffffffffffffffffffffffffffff163373ffffffffffffffffffffffffffffffffffffffff161415156117d357600080fd5b565b6005818154811015156117e457fe5b906000526020600020016000915090505481565b828054600181600116156101000203166002900490600052602060002090601f016020900481019282601f1061183957805160ff1916838001178555611867565b82800160010185558215611867579182015b8281111561186657825182559160200191906001019061184b565b5b50905061187491906118c5565b5090565b8280548282559060005260206000209081019282156118b4579160200282015b828111156118b3578251825591602001919060010190611898565b5b5090506118c191906118ea565b5090565b6118e791905b808211156118e35760008160009055506001016118cb565b5090565b90565b61190c91905b808211156119085760008160009055506001016118f0565b5090565b9056fea165627a7a723058203e36ad39dab781f7aa83cc13d9f106cb3183558e4250270df624b0471b38d8170029",
  "linkReferences": {},
  "deployedLinkReferences": {}
}