{
  "_format": "hh-sol-artifact-1",
  "contractName": "Dispatch",
  "sourceName": "contracts/platform/dispatch/Dispatch.sol",
  "abi": [
    {
      "constant": true,
      "inputs": [
        {
          "name": "id",
          "type": "uint256"
        }
      ],
      "name": "getCancel",
      "outputs": [
        {
          "name": "",
          "type": "uint256"
        }
      ],
      "payable": false,
      "stateMutability": "view",
      "type": "function"
    },
    {
      "constant": false,
      "inputs": [
        {
          "name": "id",
          "type": "uint256"
        },
        {
          "name": "response",
          "type": "bytes32[]"
        }
      ],
      "name": "respondBytes32Array",
      "outputs": [
        {
          "name": "",
          "type": "bool"
        }
      ],
      "payable": false,
      "stateMutability": "nonpayable",
      "type": "function"
    },
    {
      "constant": true,
      "inputs": [
        {
          "name": "id",
          "type": "uint256"
        }
      ],
      "name": "getSubscriber",
      "outputs": [
        {
          "name": "",
          "type": "address"
        }
      ],
      "payable": false,
      "stateMutability": "view",
      "type": "function"
    },
    {
      "constant": false,
      "inputs": [
        {
          "name": "id",
          "type": "uint256"
        },
        {
          "name": "response1",
          "type": "string"
        },
        {
          "name": "response2",
          "type": "string"
        },
        {
          "name": "response3",
          "type": "string"
        },
        {
          "name": "response4",
          "type": "string"
        }
      ],
      "name": "respond4",
      "outputs": [
        {
          "name": "",
          "type": "bool"
        }
      ],
      "payable": false,
      "stateMutability": "nonpayable",
      "type": "function"
    },
    {
      "constant": true,
      "inputs": [
        {
          "name": "id",
          "type": "uint256"
        }
      ],
      "name": "getSubscriberOnchain",
      "outputs": [
        {
          "name": "",
          "type": "bool"
        }
      ],
      "payable": false,
      "stateMutability": "view",
      "type": "function"
    },
    {
      "constant": false,
      "inputs": [
        {
          "name": "id",
          "type": "uint256"
        },
        {
          "name": "response1",
          "type": "string"
        },
        {
          "name": "response2",
          "type": "string"
        },
        {
          "name": "response3",
          "type": "string"
        }
      ],
      "name": "respond3",
      "outputs": [
        {
          "name": "",
          "type": "bool"
        }
      ],
      "payable": false,
      "stateMutability": "nonpayable",
      "type": "function"
    },
    {
      "constant": true,
      "inputs": [],
      "name": "db",
      "outputs": [
        {
          "name": "",
          "type": "address"
        }
      ],
      "payable": false,
      "stateMutability": "view",
      "type": "function"
    },
    {
      "constant": true,
      "inputs": [
        {
          "name": "id",
          "type": "uint256"
        }
      ],
      "name": "getProvider",
      "outputs": [
        {
          "name": "",
          "type": "address"
        }
      ],
      "payable": false,
      "stateMutability": "view",
      "type": "function"
    },
    {
      "constant": true,
      "inputs": [
        {
          "name": "id",
          "type": "uint256"
        }
      ],
      "name": "getStatus",
      "outputs": [
        {
          "name": "",
          "type": "uint256"
        }
      ],
      "payable": false,
      "stateMutability": "view",
      "type": "function"
    },
    {
      "constant": false,
      "inputs": [
        {
          "name": "id",
          "type": "uint256"
        },
        {
          "name": "response",
          "type": "string"
        }
      ],
      "name": "respond1",
      "outputs": [
        {
          "name": "",
          "type": "bool"
        }
      ],
      "payable": false,
      "stateMutability": "nonpayable",
      "type": "function"
    },
    {
      "constant": false,
      "inputs": [],
      "name": "updateDependencies",
      "outputs": [],
      "payable": false,
      "stateMutability": "nonpayable",
      "type": "function"
    },
    {
      "constant": false,
      "inputs": [
        {
          "name": "id",
          "type": "uint256"
        }
      ],
      "name": "cancelQuery",
      "outputs": [],
      "payable": false,
      "stateMutability": "nonpayable",
      "type": "function"
    },
    {
      "constant": false,
      "inputs": [
        {
          "name": "provider",
          "type": "address"
        },
        {
          "name": "userQuery",
          "type": "string"
        },
        {
          "name": "endpoint",
          "type": "bytes32"
        },
        {
          "name": "endpointParams",
          "type": "bytes32[]"
        }
      ],
      "name": "query",
      "outputs": [
        {
          "name": "id",
          "type": "uint256"
        }
      ],
      "payable": false,
      "stateMutability": "nonpayable",
      "type": "function"
    },
    {
      "constant": true,
      "inputs": [],
      "name": "owner",
      "outputs": [
        {
          "name": "",
          "type": "address"
        }
      ],
      "payable": false,
      "stateMutability": "view",
      "type": "function"
    },
    {
      "constant": true,
      "inputs": [],
      "name": "bondage",
      "outputs": [
        {
          "name": "",
          "type": "address"
        }
      ],
      "payable": false,
      "stateMutability": "view",
      "type": "function"
    },
    {
      "constant": true,
      "inputs": [
        {
          "name": "id",
          "type": "uint256"
        }
      ],
      "name": "getEndpoint",
      "outputs": [
        {
          "name": "",
          "type": "bytes32"
        }
      ],
      "payable": false,
      "stateMutability": "view",
      "type": "function"
    },
    {
      "constant": false,
      "inputs": [],
      "name": "selfDestruct",
      "outputs": [],
      "payable": false,
      "stateMutability": "nonpayable",
      "type": "function"
    },
    {
      "constant": true,
      "inputs": [
        {
          "name": "id",
          "type": "uint256"
        }
      ],
      "name": "getUserQuery",
      "outputs": [
        {
          "name": "",
          "type": "string"
        }
      ],
      "payable": false,
      "stateMutability": "view",
      "type": "function"
    },
    {
      "constant": true,
      "inputs": [],
      "name": "bondageAddress",
      "outputs": [
        {
          "name": "",
          "type": "address"
        }
      ],
      "payable": false,
      "stateMutability": "view",
      "type": "function"
    },
    {
      "constant": false,
      "inputs": [
        {
          "name": "id",
          "type": "uint256"
        },
        {
          "name": "response",
          "type": "int256[]"
        }
      ],
      "name": "respondIntArray",
      "outputs": [
        {
          "name": "",
          "type": "bool"
        }
      ],
      "payable": false,
      "stateMutability": "nonpayable",
      "type": "function"
    },
    {
      "constant": false,
      "inputs": [
        {
          "name": "newOwner",
          "type": "address"
        }
      ],
      "name": "transferOwnership",
      "outputs": [],
      "payable": false,
      "stateMutability": "nonpayable",
      "type": "function"
    },
    {
      "constant": false,
      "inputs": [
        {
          "name": "id",
          "type": "uint256"
        },
        {
          "name": "response1",
          "type": "string"
        },
        {
          "name": "response2",
          "type": "string"
        }
      ],
      "name": "respond2",
      "outputs": [
        {
          "name": "",
          "type": "bool"
        }
      ],
      "payable": false,
      "stateMutability": "nonpayable",
      "type": "function"
    },
    {
      "inputs": [
        {
          "name": "c",
          "type": "address"
        }
      ],
      "payable": false,
      "stateMutability": "nonpayable",
      "type": "constructor"
    },
    {
      "anonymous": false,
      "inputs": [
        {
          "indexed": true,
          "name": "id",
          "type": "uint256"
        },
        {
          "indexed": true,
          "name": "provider",
          "type": "address"
        },
        {
          "indexed": true,
          "name": "subscriber",
          "type": "address"
        },
        {
          "indexed": false,
          "name": "query",
          "type": "string"
        },
        {
          "indexed": false,
          "name": "endpoint",
          "type": "bytes32"
        },
        {
          "indexed": false,
          "name": "endpointParams",
          "type": "bytes32[]"
        },
        {
          "indexed": false,
          "name": "onchainSubscriber",
          "type": "bool"
        }
      ],
      "name": "Incoming",
      "type": "event"
    },
    {
      "anonymous": false,
      "inputs": [
        {
          "indexed": true,
          "name": "subscriber",
          "type": "address"
        },
        {
          "indexed": true,
          "name": "provider",
          "type": "address"
        },
        {
          "indexed": true,
          "name": "endpoint",
          "type": "bytes32"
        }
      ],
      "name": "FulfillQuery",
      "type": "event"
    },
    {
      "anonymous": false,
      "inputs": [
        {
          "indexed": true,
          "name": "id",
          "type": "uint256"
        },
        {
          "indexed": true,
          "name": "subscriber",
          "type": "address"
        },
        {
          "indexed": true,
          "name": "provider",
          "type": "address"
        },
        {
          "indexed": false,
          "name": "response",
          "type": "bytes32[]"
        }
      ],
      "name": "OffchainResponse",
      "type": "event"
    },
    {
      "anonymous": false,
      "inputs": [
        {
          "indexed": true,
          "name": "id",
          "type": "uint256"
        },
        {
          "indexed": true,
          "name": "subscriber",
          "type": "address"
        },
        {
          "indexed": true,
          "name": "provider",
          "type": "address"
        },
        {
          "indexed": false,
          "name": "response",
          "type": "int256[]"
        }
      ],
      "name": "OffchainResponseInt",
      "type": "event"
    },
    {
      "anonymous": false,
      "inputs": [
        {
          "indexed": true,
          "name": "id",
          "type": "uint256"
        },
        {
          "indexed": true,
          "name": "subscriber",
          "type": "address"
        },
        {
          "indexed": true,
          "name": "provider",
          "type": "address"
        },
        {
          "indexed": false,
          "name": "response1",
          "type": "string"
        }
      ],
      "name": "OffchainResult1",
      "type": "event"
    },
    {
      "anonymous": false,
      "inputs": [
        {
          "indexed": true,
          "name": "id",
          "type": "uint256"
        },
        {
          "indexed": true,
          "name": "subscriber",
          "type": "address"
        },
        {
          "indexed": true,
          "name": "provider",
          "type": "address"
        },
        {
          "indexed": false,
          "name": "response1",
          "type": "string"
        },
        {
          "indexed": false,
          "name": "response2",
          "type": "string"
        }
      ],
      "name": "OffchainResult2",
      "type": "event"
    },
    {
      "anonymous": false,
      "inputs": [
        {
          "indexed": true,
          "name": "id",
          "type": "uint256"
        },
        {
          "indexed": true,
          "name": "subscriber",
          "type": "address"
        },
        {
          "indexed": true,
          "name": "provider",
          "type": "address"
        },
        {
          "indexed": false,
          "name": "response1",
          "type": "string"
        },
        {
          "indexed": false,
          "name": "response2",
          "type": "string"
        },
        {
          "indexed": false,
          "name": "response3",
          "type": "string"
        }
      ],
      "name": "OffchainResult3",
      "type": "event"
    },
    {
      "anonymous": false,
      "inputs": [
        {
          "indexed": true,
          "name": "id",
          "type": "uint256"
        },
        {
          "indexed": true,
          "name": "subscriber",
          "type": "address"
        },
        {
          "indexed": true,
          "name": "provider",
          "type": "address"
        },
        {
          "indexed": false,
          "name": "response1",
          "type": "string"
        },
        {
          "indexed": false,
          "name": "response2",
          "type": "string"
        },
        {
          "indexed": false,
          "name": "response3",
          "type": "string"
        },
        {
          "indexed": false,
          "name": "response4",
          "type": "string"
        }
      ],
      "name": "OffchainResult4",
      "type": "event"
    },
    {
      "anonymous": false,
      "inputs": [
        {
          "indexed": true,
          "name": "id",
          "type": "uint256"
        },
        {
          "indexed": true,
          "name": "subscriber",
          "type": "address"
        },
        {
          "indexed": true,
          "name": "provider",
          "type": "address"
        }
      ],
      "name": "CanceledRequest",
      "type": "event"
    },
    {
      "anonymous": false,
      "inputs": [
        {
          "indexed": true,
          "name": "id",
          "type": "uint256"
        },
        {
          "indexed": true,
          "name": "subscriber",
          "type": "address"
        },
        {
          "indexed": true,
          "name": "provider",
          "type": "address"
        }
      ],
      "name": "RevertCancelation",
      "type": "event"
    },
    {
      "anonymous": false,
      "inputs": [
        {
          "indexed": true,
          "name": "previousOwner",
          "type": "address"
        },
        {
          "indexed": true,
          "name": "newOwner",
          "type": "address"
        }
      ],
      "name": "OwnershipTransferred",
      "type": "event"
    }
  ],
  "bytecode": "0x60806040523480156200001157600080fd5b5060405160208062004c6e833981018060405260208110156200003357600080fd5b810190808051906020019092919050505080336000806101000a81548173ffffffffffffffffffffffffffffffffffffffff021916908373ffffffffffffffffffffffffffffffffffffffff16021790555080600160006101000a81548173ffffffffffffffffffffffffffffffffffffffff021916908373ffffffffffffffffffffffffffffffffffffffff16021790555080600260006101000a81548173ffffffffffffffffffffffffffffffffffffffff021916908373ffffffffffffffffffffffffffffffffffffffff160217905550506200012162000128640100000000026401000000009004565b506200040f565b6000600260009054906101000a900473ffffffffffffffffffffffffffffffffffffffff1673ffffffffffffffffffffffffffffffffffffffff1663358177736040518163ffffffff167c01000000000000000000000000000000000000000000000000000000000281526004018080602001828103825260088152602001807f444154414241534500000000000000000000000000000000000000000000000081525060200191505060206040518083038186803b158015620001eb57600080fd5b505afa15801562000200573d6000803e3d6000fd5b505050506040513d60208110156200021757600080fd5b8101908080519060200190929190505050905080600560006101000a81548173ffffffffffffffffffffffffffffffffffffffff021916908373ffffffffffffffffffffffffffffffffffffffff160217905550600260009054906101000a900473ffffffffffffffffffffffffffffffffffffffff1673ffffffffffffffffffffffffffffffffffffffff1663358177736040518163ffffffff167c01000000000000000000000000000000000000000000000000000000000281526004018080602001828103825260078152602001807f424f4e444147450000000000000000000000000000000000000000000000000081525060200191505060206040518083038186803b1580156200032c57600080fd5b505afa15801562000341573d6000803e3d6000fd5b505050506040513d60208110156200035857600080fd5b8101908080519060200190929190505050600460006101000a81548173ffffffffffffffffffffffffffffffffffffffff021916908373ffffffffffffffffffffffffffffffffffffffff160217905550600460009054906101000a900473ffffffffffffffffffffffffffffffffffffffff16600360006101000a81548173ffffffffffffffffffffffffffffffffffffffff021916908373ffffffffffffffffffffffffffffffffffffffff16021790555050565b61484f806200041f6000396000f3fe608060405260043610610122576000357c010000000000000000000000000000000000000000000000000000000090048063027521ce146101275780630cbe69a11461017657806325df1e771461021e5780633485d34c1461029957806337a8c560146104405780633b90dfa8146104935780634d655aff146105e55780635c42d0791461063c5780635c622a0e146106b75780636843581c146107065780636e5ecdff146107ae5780637237dc0b146107c55780637de7cc66146108005780638da5cb5b146109195780638ed2002114610970578063937bbc4a146109c75780639cb8a26a14610a16578063dc7317c914610a2d578063e00dbb4114610ae1578063ef05ab0b14610b38578063f2fde38b14610be0578063fedea28814610c31575b600080fd5b34801561013357600080fd5b506101606004803603602081101561014a57600080fd5b8101908080359060200190929190505050610d2e565b6040518082815260200191505060405180910390f35b34801561018257600080fd5b506102046004803603604081101561019957600080fd5b8101908080359060200190929190803590602001906401000000008111156101c057600080fd5b8201836020820111156101d257600080fd5b803590602001918460208302840111640100000000831117156101f457600080fd5b9091929391929390505050610e77565b604051808215151515815260200191505060405180910390f35b34801561022a57600080fd5b506102576004803603602081101561024157600080fd5b810190808035906020019092919050505061104e565b604051808273ffffffffffffffffffffffffffffffffffffffff1673ffffffffffffffffffffffffffffffffffffffff16815260200191505060405180910390f35b3480156102a557600080fd5b50610426600480360360a08110156102bc57600080fd5b8101908080359060200190929190803590602001906401000000008111156102e357600080fd5b8201836020820111156102f557600080fd5b8035906020019184600183028401116401000000008311171561031757600080fd5b90919293919293908035906020019064010000000081111561033857600080fd5b82018360208201111561034a57600080fd5b8035906020019184600183028401116401000000008311171561036c57600080fd5b90919293919293908035906020019064010000000081111561038d57600080fd5b82018360208201111561039f57600080fd5b803590602001918460018302840111640100000000831117156103c157600080fd5b9091929391929390803590602001906401000000008111156103e257600080fd5b8201836020820111156103f457600080fd5b8035906020019184600183028401116401000000008311171561041657600080fd5b9091929391929390505050611197565b604051808215151515815260200191505060405180910390f35b34801561044c57600080fd5b506104796004803603602081101561046357600080fd5b81019080803590602001909291905050506114a6565b604051808215151515815260200191505060405180910390f35b34801561049f57600080fd5b506105cb600480360360808110156104b657600080fd5b8101908080359060200190929190803590602001906401000000008111156104dd57600080fd5b8201836020820111156104ef57600080fd5b8035906020019184600183028401116401000000008311171561051157600080fd5b90919293919293908035906020019064010000000081111561053257600080fd5b82018360208201111561054457600080fd5b8035906020019184600183028401116401000000008311171561056657600080fd5b90919293919293908035906020019064010000000081111561058757600080fd5b82018360208201111561059957600080fd5b803590602001918460018302840111640100000000831117156105bb57600080fd5b9091929391929390505050611605565b604051808215151515815260200191505060405180910390f35b3480156105f157600080fd5b506105fa6118aa565b604051808273ffffffffffffffffffffffffffffffffffffffff1673ffffffffffffffffffffffffffffffffffffffff16815260200191505060405180910390f35b34801561064857600080fd5b506106756004803603602081101561065f57600080fd5b81019080803590602001909291905050506118d0565b604051808273ffffffffffffffffffffffffffffffffffffffff1673ffffffffffffffffffffffffffffffffffffffff16815260200191505060405180910390f35b3480156106c357600080fd5b506106f0600480360360208110156106da57600080fd5b8101908080359060200190929190505050611a19565b6040518082815260200191505060405180910390f35b34801561071257600080fd5b506107946004803603604081101561072957600080fd5b81019080803590602001909291908035906020019064010000000081111561075057600080fd5b82018360208201111561076257600080fd5b8035906020019184600183028401116401000000008311171561078457600080fd5b9091929391929390505050611b62565b604051808215151515815260200191505060405180910390f35b3480156107ba57600080fd5b506107c3611d33565b005b3480156107d157600080fd5b506107fe600480360360208110156107e857600080fd5b8101908080359060200190929190505050611e02565b005b34801561080c57600080fd5b506109036004803603608081101561082357600080fd5b81019080803573ffffffffffffffffffffffffffffffffffffffff1690602001909291908035906020019064010000000081111561086057600080fd5b82018360208201111561087257600080fd5b8035906020019184600183028401116401000000008311171561089457600080fd5b909192939192939080359060200190929190803590602001906401000000008111156108bf57600080fd5b8201836020820111156108d157600080fd5b803590602001918460208302840111640100000000831117156108f357600080fd5b9091929391929390505050612127565b6040518082815260200191505060405180910390f35b34801561092557600080fd5b5061092e6127ba565b604051808273ffffffffffffffffffffffffffffffffffffffff1673ffffffffffffffffffffffffffffffffffffffff16815260200191505060405180910390f35b34801561097c57600080fd5b506109856127df565b604051808273ffffffffffffffffffffffffffffffffffffffff1673ffffffffffffffffffffffffffffffffffffffff16815260200191505060405180910390f35b3480156109d357600080fd5b50610a00600480360360208110156109ea57600080fd5b8101908080359060200190929190505050612805565b6040518082815260200191505060405180910390f35b348015610a2257600080fd5b50610a2b61294e565b005b348015610a3957600080fd5b50610a6660048036036020811015610a5057600080fd5b81019080803590602001909291905050506129e3565b6040518080602001828103825283818151815260200191508051906020019080838360005b83811015610aa6578082015181840152602081019050610a8b565b50505050905090810190601f168015610ad35780820380516001836020036101000a031916815260200191505b509250505060405180910390f35b348015610aed57600080fd5b50610af6612b82565b604051808273ffffffffffffffffffffffffffffffffffffffff1673ffffffffffffffffffffffffffffffffffffffff16815260200191505060405180910390f35b348015610b4457600080fd5b50610bc660048036036040811015610b5b57600080fd5b810190808035906020019092919080359060200190640100000000811115610b8257600080fd5b820183602082011115610b9457600080fd5b80359060200191846020830284011164010000000083111715610bb657600080fd5b9091929391929390505050612ba8565b604051808215151515815260200191505060405180910390f35b348015610bec57600080fd5b50610c2f60048036036020811015610c0357600080fd5b81019080803573ffffffffffffffffffffffffffffffffffffffff169060200190929190505050612d7f565b005b348015610c3d57600080fd5b50610d1460048036036060811015610c5457600080fd5b810190808035906020019092919080359060200190640100000000811115610c7b57600080fd5b820183602082011115610c8d57600080fd5b80359060200191846001830284011164010000000083111715610caf57600080fd5b909192939192939080359060200190640100000000811115610cd057600080fd5b820183602082011115610ce257600080fd5b80359060200191846001830284011164010000000083111715610d0457600080fd5b9091929391929390505050612ed4565b604051808215151515815260200191505060405180910390f35b6000600560009054906101000a900473ffffffffffffffffffffffffffffffffffffffff1673ffffffffffffffffffffffffffffffffffffffff16632ecb0d648360405160200180807f7175657269657300000000000000000000000000000000000000000000000000815250600701828152602001807f63616e63656c426c6f636b000000000000000000000000000000000000000000815250600b01915050604051602081830303815290604052805190602001206040518263ffffffff167c01000000000000000000000000000000000000000000000000000000000281526004018082815260200191505060206040518083038186803b158015610e3557600080fd5b505afa158015610e49573d6000803e3d6000fd5b505050506040513d6020811015610e5f57600080fd5b81019080805190602001909291905050509050919050565b60003373ffffffffffffffffffffffffffffffffffffffff16610e99856118d0565b73ffffffffffffffffffffffffffffffffffffffff16141580610ec25750610ec08461310f565b155b15610ecc57600080fd5b610ed5846114a6565b15610fa557610ee38461104e565b73ffffffffffffffffffffffffffffffffffffffff166363b41fe98585856040518463ffffffff167c010000000000000000000000000000000000000000000000000000000002815260040180848152602001806020018281038252848482818152602001925060200280828437600081840152601f19601f820116905080830192505050945050505050600060405180830381600087803b158015610f8857600080fd5b505af1158015610f9c573d6000803e3d6000fd5b50505050611043565b3373ffffffffffffffffffffffffffffffffffffffff16610fc58561104e565b73ffffffffffffffffffffffffffffffffffffffff16857f92d44f3550f6aeaab26241971266a417e4385691402c27c5a1bf69b2c19210c6868660405180806020018281038252848482818152602001925060200280828437600081840152601f19601f820116905080830192505050935050505060405180910390a45b600190509392505050565b6000600560009054906101000a900473ffffffffffffffffffffffffffffffffffffffff1673ffffffffffffffffffffffffffffffffffffffff16632ecb0d648360405160200180807f7175657269657300000000000000000000000000000000000000000000000000815250600701828152602001807f7375627363726962657200000000000000000000000000000000000000000000815250600a01915050604051602081830303815290604052805190602001206040518263ffffffff167c01000000000000000000000000000000000000000000000000000000000281526004018082815260200191505060206040518083038186803b15801561115557600080fd5b505afa158015611169573d6000803e3d6000fd5b505050506040513d602081101561117f57600080fd5b81019080805190602001909291905050509050919050565b60003373ffffffffffffffffffffffffffffffffffffffff166111b98b6118d0565b73ffffffffffffffffffffffffffffffffffffffff161415806111e257506111e08a61310f565b155b156111ec57600080fd5b6111f58a6114a6565b1561135e576112038a61104e565b73ffffffffffffffffffffffffffffffffffffffff1663a267cf078b8b8b8b8b8b8b8b8b6040518a63ffffffff167c0100000000000000000000000000000000000000000000000000000000028152600401808a81526020018060200180602001806020018060200185810385528d8d82818152602001925080828437600081840152601f19601f82011690508083019250505085810384528b8b82818152602001925080828437600081840152601f19601f8201169050808301925050508581038352898982818152602001925080828437600081840152601f19601f8201169050808301925050508581038252878782818152602001925080828437600081840152601f19601f8201169050808301925050509d5050505050505050505050505050600060405180830381600087803b15801561134157600080fd5b505af1158015611355573d6000803e3d6000fd5b50505050611495565b3373ffffffffffffffffffffffffffffffffffffffff1661137e8b61104e565b73ffffffffffffffffffffffffffffffffffffffff168b7f5e141f0f2db9b2fa0d44e60384103676292be03cac75671374ea23e719dcd64b8c8c8c8c8c8c8c8c604051808060200180602001806020018060200185810385528d8d82818152602001925080828437600081840152601f19601f82011690508083019250505085810384528b8b82818152602001925080828437600081840152601f19601f8201169050808301925050508581038352898982818152602001925080828437600081840152601f19601f8201169050808301925050508581038252878782818152602001925080828437600081840152601f19601f8201169050808301925050509c5050505050505050505050505060405180910390a45b600190509998505050505050505050565b600080600560009054906101000a900473ffffffffffffffffffffffffffffffffffffffff1673ffffffffffffffffffffffffffffffffffffffff16632ecb0d648460405160200180807f7175657269657300000000000000000000000000000000000000000000000000815250600701828152602001807f6f6e636861696e53756273637269626572000000000000000000000000000000815250601101915050604051602081830303815290604052805190602001206040518263ffffffff167c01000000000000000000000000000000000000000000000000000000000281526004018082815260200191505060206040518083038186803b1580156115ae57600080fd5b505afa1580156115c2573d6000803e3d6000fd5b505050506040513d60208110156115d857600080fd5b81019080805190602001909291905050509050600181146115fa5760006115fd565b60015b915050919050565b60003373ffffffffffffffffffffffffffffffffffffffff16611627896118d0565b73ffffffffffffffffffffffffffffffffffffffff16141580611650575061164e8861310f565b155b1561165a57600080fd5b611663886114a6565b15611798576116718861104e565b73ffffffffffffffffffffffffffffffffffffffff1663d936a327898989898989896040518863ffffffff167c01000000000000000000000000000000000000000000000000000000000281526004018088815260200180602001806020018060200184810384528a8a82818152602001925080828437600081840152601f19601f8201169050808301925050508481038352888882818152602001925080828437600081840152601f19601f8201169050808301925050508481038252868682818152602001925080828437600081840152601f19601f8201169050808301925050509a5050505050505050505050600060405180830381600087803b15801561177b57600080fd5b505af115801561178f573d6000803e3d6000fd5b5050505061189b565b3373ffffffffffffffffffffffffffffffffffffffff166117b88961104e565b73ffffffffffffffffffffffffffffffffffffffff16897f5d15dbf2e2e3132b5a4fa750a08fbdc88bde1149224a6b1de740e50804707ef28a8a8a8a8a8a6040518080602001806020018060200184810384528a8a82818152602001925080828437600081840152601f19601f8201169050808301925050508481038352888882818152602001925080828437600081840152601f19601f8201169050808301925050508481038252868682818152602001925080828437600081840152601f19601f820116905080830192505050995050505050505050505060405180910390a45b60019050979650505050505050565b600560009054906101000a900473ffffffffffffffffffffffffffffffffffffffff1681565b6000600560009054906101000a900473ffffffffffffffffffffffffffffffffffffffff1673ffffffffffffffffffffffffffffffffffffffff16632ecb0d648360405160200180807f7175657269657300000000000000000000000000000000000000000000000000815250600701828152602001807f70726f7669646572000000000000000000000000000000000000000000000000815250600801915050604051602081830303815290604052805190602001206040518263ffffffff167c01000000000000000000000000000000000000000000000000000000000281526004018082815260200191505060206040518083038186803b1580156119d757600080fd5b505afa1580156119eb573d6000803e3d6000fd5b505050506040513d6020811015611a0157600080fd5b81019080805190602001909291905050509050919050565b6000600560009054906101000a900473ffffffffffffffffffffffffffffffffffffffff1673ffffffffffffffffffffffffffffffffffffffff16632ecb0d648360405160200180807f7175657269657300000000000000000000000000000000000000000000000000815250600701828152602001807f7374617475730000000000000000000000000000000000000000000000000000815250600601915050604051602081830303815290604052805190602001206040518263ffffffff167c01000000000000000000000000000000000000000000000000000000000281526004018082815260200191505060206040518083038186803b158015611b2057600080fd5b505afa158015611b34573d6000803e3d6000fd5b505050506040513d6020811015611b4a57600080fd5b81019080805190602001909291905050509050919050565b60003373ffffffffffffffffffffffffffffffffffffffff16611b84856118d0565b73ffffffffffffffffffffffffffffffffffffffff16141580611bad5750611bab8461310f565b155b15611bb757600080fd5b611bc0846114a6565b15611c8d57611bce8461104e565b73ffffffffffffffffffffffffffffffffffffffff1663b69a375d8585856040518463ffffffff167c010000000000000000000000000000000000000000000000000000000002815260040180848152602001806020018281038252848482818152602001925080828437600081840152601f19601f820116905080830192505050945050505050600060405180830381600087803b158015611c7057600080fd5b505af1158015611c84573d6000803e3d6000fd5b50505050611d28565b3373ffffffffffffffffffffffffffffffffffffffff16611cad8561104e565b73ffffffffffffffffffffffffffffffffffffffff16857f61ca5cd516a9a4012e4c147542d38223206ca531953abcb3272f579768d9dfb0868660405180806020018281038252848482818152602001925080828437600081840152601f19601f820116905080830192505050935050505060405180910390a45b600190509392505050565b600160009054906101000a900473ffffffffffffffffffffffffffffffffffffffff1673ffffffffffffffffffffffffffffffffffffffff163373ffffffffffffffffffffffffffffffffffffffff16141515611df8576040517f08c379a00000000000000000000000000000000000000000000000000000000081526004018080602001828103825260208152602001807f4572726f723a20436f6f7264696e61746f72204f6e6c792046756e6374696f6e81525060200191505060405180910390fd5b611e006135d5565b565b6000611e0d8261104e565b90506000611e1a836118d0565b90506000611e2784612805565b90503373ffffffffffffffffffffffffffffffffffffffff168373ffffffffffffffffffffffffffffffffffffffff16141515611ecc576040517f08c379a00000000000000000000000000000000000000000000000000000000081526004018080602001828103825260178152602001807f4572726f723a2057726f6e67207375627363726962657200000000000000000081525060200191505060405180910390fd5b60006002811115611ed957fe5b611ee285611a19565b6002811115611eed57fe5b6002811115611ef857fe5b141515611f6d576040517f08c379a000000000000000000000000000000000000000000000000000000000815260040180806020018281038252601b8152602001807f4572726f723a205175657279206973206e6f742070656e64696e67000000000081525060200191505060405180910390fd5b611f788460016138b6565b600360009054906101000a900473ffffffffffffffffffffffffffffffffffffffff1673ffffffffffffffffffffffffffffffffffffffff1663f6dfac2584848460016040518563ffffffff167c0100000000000000000000000000000000000000000000000000000000028152600401808573ffffffffffffffffffffffffffffffffffffffff1673ffffffffffffffffffffffffffffffffffffffff1681526020018473ffffffffffffffffffffffffffffffffffffffff1673ffffffffffffffffffffffffffffffffffffffff168152602001838152602001828152602001945050505050602060405180830381600087803b15801561207a57600080fd5b505af115801561208e573d6000803e3d6000fd5b505050506040513d60208110156120a457600080fd5b8101908080519060200190929190505050506120bf846118d0565b73ffffffffffffffffffffffffffffffffffffffff166120de8561104e565b73ffffffffffffffffffffffffffffffffffffffff16857f4030457f4368d74748ca5f9c90692bd6c8a018884ddca38fcbce9e02179e777e60405160405180910390a450505050565b600080600360009054906101000a900473ffffffffffffffffffffffffffffffffffffffff1673ffffffffffffffffffffffffffffffffffffffff1663bbee3694338a886040518463ffffffff167c0100000000000000000000000000000000000000000000000000000000028152600401808473ffffffffffffffffffffffffffffffffffffffff1673ffffffffffffffffffffffffffffffffffffffff1681526020018373ffffffffffffffffffffffffffffffffffffffff1673ffffffffffffffffffffffffffffffffffffffff168152602001828152602001935050505060206040518083038186803b15801561222157600080fd5b505afa158015612235573d6000803e3d6000fd5b505050506040513d602081101561224b57600080fd5b81019080805190602001909291905050509050600061226989613d7a565b9050600061227633613d7a565b905061228183613d8d565b60018310151561271957600360009054906101000a900473ffffffffffffffffffffffffffffffffffffffff1673ffffffffffffffffffffffffffffffffffffffff166316614c98338c8a60016040518563ffffffff167c0100000000000000000000000000000000000000000000000000000000028152600401808573ffffffffffffffffffffffffffffffffffffffff1673ffffffffffffffffffffffffffffffffffffffff1681526020018473ffffffffffffffffffffffffffffffffffffffff1673ffffffffffffffffffffffffffffffffffffffff168152602001838152602001828152602001945050505050602060405180830381600087803b15801561238d57600080fd5b505af11580156123a1573d6000803e3d6000fd5b505050506040513d60208110156123b757600080fd5b81019080805190602001909291905050505043428a8a338e60405160200180878152602001868152602001858580828437808301925050508373ffffffffffffffffffffffffffffffffffffffff1673ffffffffffffffffffffffffffffffffffffffff166c010000000000000000000000000281526014018273ffffffffffffffffffffffffffffffffffffffff1673ffffffffffffffffffffffffffffffffffffffff166c010000000000000000000000000281526014019650505050505050604051602081830303815290604052805190602001206001900493506124d36040805190810160405280600881526020017f696e207175657279000000000000000000000000000000000000000000000000815250613e26565b612525848b338a8d8d8080601f016020809104026020016040519081016040528093929190818152602001838380828437600081840152601f19601f8201169050808301925050505050505086613f24565b8115612636578973ffffffffffffffffffffffffffffffffffffffff1663de261583858b8b8b8b8b886040518863ffffffff167c0100000000000000000000000000000000000000000000000000000000028152600401808881526020018060200186815260200180602001841515151581526020018381038352898982818152602001925080828437600081840152601f19601f8201169050808301925050508381038252868682818152602001925060200280828437600081840152601f19601f8201169050808301925050509950505050505050505050600060405180830381600087803b15801561261957600080fd5b505af115801561262d573d6000803e3d6000fd5b50505050612714565b3373ffffffffffffffffffffffffffffffffffffffff168a73ffffffffffffffffffffffffffffffffffffffff16857f69741cc3ec0270f258feb6b53b42ef1e7d2251a3c8eea4f6ba1f72bd4b7beba78c8c8c8c8c89604051808060200186815260200180602001841515151581526020018381038352898982818152602001925080828437600081840152601f19601f8201169050808301925050508381038252868682818152602001925060200280828437600081840152601f19601f8201169050808301925050509850505050505050505060405180910390a45b6127ad565b6040517f08c379a00000000000000000000000000000000000000000000000000000000081526004018080602001828103825260228152602001807f5375627363726962657220646f6573206e6f74206861766520616e7920646f7481526020017f732e00000000000000000000000000000000000000000000000000000000000081525060400191505060405180910390fd5b5050509695505050505050565b6000809054906101000a900473ffffffffffffffffffffffffffffffffffffffff1681565b600360009054906101000a900473ffffffffffffffffffffffffffffffffffffffff1681565b6000600560009054906101000a900473ffffffffffffffffffffffffffffffffffffffff1673ffffffffffffffffffffffffffffffffffffffff1663a6ed563e8360405160200180807f7175657269657300000000000000000000000000000000000000000000000000815250600701828152602001807f656e64706f696e74000000000000000000000000000000000000000000000000815250600801915050604051602081830303815290604052805190602001206040518263ffffffff167c01000000000000000000000000000000000000000000000000000000000281526004018082815260200191505060206040518083038186803b15801561290c57600080fd5b505afa158015612920573d6000803e3d6000fd5b505050506040513d602081101561293657600080fd5b81019080805190602001909291905050509050919050565b6000809054906101000a900473ffffffffffffffffffffffffffffffffffffffff1673ffffffffffffffffffffffffffffffffffffffff163373ffffffffffffffffffffffffffffffffffffffff161415156129a957600080fd5b6000809054906101000a900473ffffffffffffffffffffffffffffffffffffffff1673ffffffffffffffffffffffffffffffffffffffff16ff5b6060600560009054906101000a900473ffffffffffffffffffffffffffffffffffffffff1673ffffffffffffffffffffffffffffffffffffffff1663986e791a8360405160200180807f7175657269657300000000000000000000000000000000000000000000000000815250600701828152602001807f7573657251756572790000000000000000000000000000000000000000000000815250600901915050604051602081830303815290604052805190602001206040518263ffffffff167c01000000000000000000000000000000000000000000000000000000000281526004018082815260200191505060006040518083038186803b158015612aea57600080fd5b505afa158015612afe573d6000803e3d6000fd5b505050506040513d6000823e3d601f19601f820116820180604052506020811015612b2857600080fd5b810190808051640100000000811115612b4057600080fd5b82810190506020810184811115612b5657600080fd5b8151856001820283011164010000000082111715612b7357600080fd5b50509291905050509050919050565b600460009054906101000a900473ffffffffffffffffffffffffffffffffffffffff1681565b60003373ffffffffffffffffffffffffffffffffffffffff16612bca856118d0565b73ffffffffffffffffffffffffffffffffffffffff16141580612bf35750612bf18461310f565b155b15612bfd57600080fd5b612c06846114a6565b15612cd657612c148461104e565b73ffffffffffffffffffffffffffffffffffffffff166399ff48af8585856040518463ffffffff167c010000000000000000000000000000000000000000000000000000000002815260040180848152602001806020018281038252848482818152602001925060200280828437600081840152601f19601f820116905080830192505050945050505050600060405180830381600087803b158015612cb957600080fd5b505af1158015612ccd573d6000803e3d6000fd5b50505050612d74565b3373ffffffffffffffffffffffffffffffffffffffff16612cf68561104e565b73ffffffffffffffffffffffffffffffffffffffff16857f9f77e7a9a5b13a5eb3acd7d32b8bffc55d7eb27f4ac09a5b804feaf2bab4c74d868660405180806020018281038252848482818152602001925060200280828437600081840152601f19601f820116905080830192505050935050505060405180910390a45b600190509392505050565b6000809054906101000a900473ffffffffffffffffffffffffffffffffffffffff1673ffffffffffffffffffffffffffffffffffffffff163373ffffffffffffffffffffffffffffffffffffffff16141515612dda57600080fd5b600073ffffffffffffffffffffffffffffffffffffffff168173ffffffffffffffffffffffffffffffffffffffff1614151515612e1657600080fd5b8073ffffffffffffffffffffffffffffffffffffffff166000809054906101000a900473ffffffffffffffffffffffffffffffffffffffff1673ffffffffffffffffffffffffffffffffffffffff167f8be0079c531659141344cd1fd0a4f28419497f9722a3daafe3b4186f6b6457e060405160405180910390a3806000806101000a81548173ffffffffffffffffffffffffffffffffffffffff021916908373ffffffffffffffffffffffffffffffffffffffff16021790555050565b60003373ffffffffffffffffffffffffffffffffffffffff16612ef6876118d0565b73ffffffffffffffffffffffffffffffffffffffff16141580612f1f5750612f1d8661310f565b155b15612f2957600080fd5b612f32866114a6565b1561303357612f408661104e565b73ffffffffffffffffffffffffffffffffffffffff1663f5795cd587878787876040518663ffffffff167c01000000000000000000000000000000000000000000000000000000000281526004018086815260200180602001806020018381038352878782818152602001925080828437600081840152601f19601f8201169050808301925050508381038252858582818152602001925080828437600081840152601f19601f820116905080830192505050975050505050505050600060405180830381600087803b15801561301657600080fd5b505af115801561302a573d6000803e3d6000fd5b50505050613102565b3373ffffffffffffffffffffffffffffffffffffffff166130538761104e565b73ffffffffffffffffffffffffffffffffffffffff16877ff34afe5c6e139b15c1ff3b929a198532242d2d8727db2099925e4e2d8a8fc681888888886040518080602001806020018381038352878782818152602001925080828437600081840152601f19601f8201169050808301925050508381038252858582818152602001925080828437600081840152601f19601f820116905080830192505050965050505050505060405180910390a45b6001905095945050505050565b60008061311b83611a19565b600281111561312657fe5b90506001600281111561313557fe5b81600281111561314157fe5b141515156131b7576040517f08c379a000000000000000000000000000000000000000000000000000000000815260040180806020018281038252601f8152602001807f4572726f723a2053746174757320616c72656164792066756c66696c6c65640081525060200191505060405180910390fd5b60006131c28461104e565b905060006131cf856118d0565b905060006131dc86612805565b90506002808111156131ea57fe5b8460028111156131f657fe5b141561342657600061320787610d2e565b90508043141515613280576040517f08c379a00000000000000000000000000000000000000000000000000000000081526004018080602001828103825260158152602001807f4572726f723a2043616e63656c2069676e6f726564000000000000000000000081525060200191505060405180910390fd5b61328b8760006138b6565b600360009054906101000a900473ffffffffffffffffffffffffffffffffffffffff1673ffffffffffffffffffffffffffffffffffffffff166316614c9885858560016040518563ffffffff167c0100000000000000000000000000000000000000000000000000000000028152600401808573ffffffffffffffffffffffffffffffffffffffff1673ffffffffffffffffffffffffffffffffffffffff1681526020018473ffffffffffffffffffffffffffffffffffffffff1673ffffffffffffffffffffffffffffffffffffffff168152602001838152602001828152602001945050505050602060405180830381600087803b15801561338d57600080fd5b505af11580156133a1573d6000803e3d6000fd5b505050506040513d60208110156133b757600080fd5b8101908080519060200190929190505050508273ffffffffffffffffffffffffffffffffffffffff168473ffffffffffffffffffffffffffffffffffffffff16887f01aa7d984ab9ef683cf842c6260f8c3d4e2c2c4a32bfa5120bf0f6bcd51225f060405160405180910390a4505b61342f866146c4565b600360009054906101000a900473ffffffffffffffffffffffffffffffffffffffff1673ffffffffffffffffffffffffffffffffffffffff16633b058aa784848460016040518563ffffffff167c0100000000000000000000000000000000000000000000000000000000028152600401808573ffffffffffffffffffffffffffffffffffffffff1673ffffffffffffffffffffffffffffffffffffffff1681526020018473ffffffffffffffffffffffffffffffffffffffff1673ffffffffffffffffffffffffffffffffffffffff168152602001838152602001828152602001945050505050602060405180830381600087803b15801561353157600080fd5b505af1158015613545573d6000803e3d6000fd5b505050506040513d602081101561355b57600080fd5b810190808051906020019092919050505050808273ffffffffffffffffffffffffffffffffffffffff168473ffffffffffffffffffffffffffffffffffffffff167fd2acd679e4b12e04dac69f514df2934d7bdb622acd5b5ebaea14f3dd70c3d58a60405160405180910390a46001945050505050919050565b6000600260009054906101000a900473ffffffffffffffffffffffffffffffffffffffff1673ffffffffffffffffffffffffffffffffffffffff1663358177736040518163ffffffff167c01000000000000000000000000000000000000000000000000000000000281526004018080602001828103825260088152602001807f444154414241534500000000000000000000000000000000000000000000000081525060200191505060206040518083038186803b15801561369757600080fd5b505afa1580156136ab573d6000803e3d6000fd5b505050506040513d60208110156136c157600080fd5b8101908080519060200190929190505050905080600560006101000a81548173ffffffffffffffffffffffffffffffffffffffff021916908373ffffffffffffffffffffffffffffffffffffffff160217905550600260009054906101000a900473ffffffffffffffffffffffffffffffffffffffff1673ffffffffffffffffffffffffffffffffffffffff1663358177736040518163ffffffff167c01000000000000000000000000000000000000000000000000000000000281526004018080602001828103825260078152602001807f424f4e444147450000000000000000000000000000000000000000000000000081525060200191505060206040518083038186803b1580156137d557600080fd5b505afa1580156137e9573d6000803e3d6000fd5b505050506040513d60208110156137ff57600080fd5b8101908080519060200190929190505050600460006101000a81548173ffffffffffffffffffffffffffffffffffffffff021916908373ffffffffffffffffffffffffffffffffffffffff160217905550600460009054906101000a900473ffffffffffffffffffffffffffffffffffffffff16600360006101000a81548173ffffffffffffffffffffffffffffffffffffffff021916908373ffffffffffffffffffffffffffffffffffffffff16021790555050565b8015613b1a57600560009054906101000a900473ffffffffffffffffffffffffffffffffffffffff1673ffffffffffffffffffffffffffffffffffffffff166354c552db8360405160200180807f7175657269657300000000000000000000000000000000000000000000000000815250600701828152602001807f63616e63656c426c6f636b000000000000000000000000000000000000000000815250600b0191505060405160208183030381529060405280519060200120436040518363ffffffff167c01000000000000000000000000000000000000000000000000000000000281526004018083815260200182815260200192505050600060405180830381600087803b1580156139cb57600080fd5b505af11580156139df573d6000803e3d6000fd5b50505050600560009054906101000a900473ffffffffffffffffffffffffffffffffffffffff1673ffffffffffffffffffffffffffffffffffffffff166354c552db8360405160200180807f7175657269657300000000000000000000000000000000000000000000000000815250600701828152602001807f737461747573000000000000000000000000000000000000000000000000000081525060060191505060405160208183030381529060405280519060200120600280811115613aa457fe5b6040518363ffffffff167c01000000000000000000000000000000000000000000000000000000000281526004018083815260200182815260200192505050600060405180830381600087803b158015613afd57600080fd5b505af1158015613b11573d6000803e3d6000fd5b50505050613d76565b600560009054906101000a900473ffffffffffffffffffffffffffffffffffffffff1673ffffffffffffffffffffffffffffffffffffffff166354c552db8360405160200180807f7175657269657300000000000000000000000000000000000000000000000000815250600701828152602001807f63616e63656c426c6f636b000000000000000000000000000000000000000000815250600b019150506040516020818303038152906040528051906020012060006040518363ffffffff167c01000000000000000000000000000000000000000000000000000000000281526004018083815260200182815260200192505050600060405180830381600087803b158015613c2a57600080fd5b505af1158015613c3e573d6000803e3d6000fd5b50505050600560009054906101000a900473ffffffffffffffffffffffffffffffffffffffff1673ffffffffffffffffffffffffffffffffffffffff166354c552db8360405160200180807f7175657269657300000000000000000000000000000000000000000000000000815250600701828152602001807f73746174757300000000000000000000000000000000000000000000000000008152506006019150506040516020818303038152906040528051906020012060006002811115613d0457fe5b6040518363ffffffff167c01000000000000000000000000000000000000000000000000000000000281526004018083815260200182815260200192505050600060405180830381600087803b158015613d5d57600080fd5b505af1158015613d71573d6000803e3d6000fd5b505050505b5050565b600080823b905060008111915050919050565b613e2381604051602401808281526020019150506040516020818303038152906040527ff5b1bba9000000000000000000000000000000000000000000000000000000007bffffffffffffffffffffffffffffffffffffffffffffffffffffffff19166020820180517bffffffffffffffffffffffffffffffffffffffffffffffffffffffff83818316178352505050506147fa565b50565b613f21816040516024018080602001828103825283818151815260200191508051906020019080838360005b83811015613e6d578082015181840152602081019050613e52565b50505050905090810190601f168015613e9a5780820380516001836020036101000a031916815260200191505b50925050506040516020818303038152906040527f41304fac000000000000000000000000000000000000000000000000000000007bffffffffffffffffffffffffffffffffffffffffffffffffffffffff19166020820180517bffffffffffffffffffffffffffffffffffffffffffffffffffffffff83818316178352505050506147fa565b50565b600560009054906101000a900473ffffffffffffffffffffffffffffffffffffffff1673ffffffffffffffffffffffffffffffffffffffff166354c552db8760405160200180807f7175657269657300000000000000000000000000000000000000000000000000815250600701828152602001807f70726f7669646572000000000000000000000000000000000000000000000000815250600801915050604051602081830303815290604052805190602001208773ffffffffffffffffffffffffffffffffffffffff166040518363ffffffff167c01000000000000000000000000000000000000000000000000000000000281526004018083815260200182815260200192505050600060405180830381600087803b15801561404957600080fd5b505af115801561405d573d6000803e3d6000fd5b50505050600560009054906101000a900473ffffffffffffffffffffffffffffffffffffffff1673ffffffffffffffffffffffffffffffffffffffff166354c552db8760405160200180807f7175657269657300000000000000000000000000000000000000000000000000815250600701828152602001807f7375627363726962657200000000000000000000000000000000000000000000815250600a01915050604051602081830303815290604052805190602001208673ffffffffffffffffffffffffffffffffffffffff166040518363ffffffff167c01000000000000000000000000000000000000000000000000000000000281526004018083815260200182815260200192505050600060405180830381600087803b15801561418657600080fd5b505af115801561419a573d6000803e3d6000fd5b50505050600560009054906101000a900473ffffffffffffffffffffffffffffffffffffffff1673ffffffffffffffffffffffffffffffffffffffff16634e91db088760405160200180807f7175657269657300000000000000000000000000000000000000000000000000815250600701828152602001807f656e64706f696e7400000000000000000000000000000000000000000000000081525060080191505060405160208183030381529060405280519060200120856040518363ffffffff167c01000000000000000000000000000000000000000000000000000000000281526004018083815260200182815260200192505050600060405180830381600087803b1580156142ad57600080fd5b505af11580156142c1573d6000803e3d6000fd5b50505050600560009054906101000a900473ffffffffffffffffffffffffffffffffffffffff1673ffffffffffffffffffffffffffffffffffffffff16636e8995508760405160200180807f7175657269657300000000000000000000000000000000000000000000000000815250600701828152602001807f757365725175657279000000000000000000000000000000000000000000000081525060090191505060405160208183030381529060405280519060200120846040518363ffffffff167c01000000000000000000000000000000000000000000000000000000000281526004018083815260200180602001828103825283818151815260200191508051906020019080838360005b838110156143ec5780820151818401526020810190506143d1565b50505050905090810190601f1680156144195780820380516001836020036101000a031916815260200191505b509350505050600060405180830381600087803b15801561443957600080fd5b505af115801561444d573d6000803e3d6000fd5b50505050600560009054906101000a900473ffffffffffffffffffffffffffffffffffffffff1673ffffffffffffffffffffffffffffffffffffffff166354c552db8760405160200180807f7175657269657300000000000000000000000000000000000000000000000000815250600701828152602001807f7374617475730000000000000000000000000000000000000000000000000000815250600601915050604051602081830303815290604052805190602001206000600281111561451357fe5b6040518363ffffffff167c01000000000000000000000000000000000000000000000000000000000281526004018083815260200182815260200192505050600060405180830381600087803b15801561456c57600080fd5b505af1158015614580573d6000803e3d6000fd5b50505050600560009054906101000a900473ffffffffffffffffffffffffffffffffffffffff1673ffffffffffffffffffffffffffffffffffffffff166354c552db8760405160200180807f7175657269657300000000000000000000000000000000000000000000000000815250600701828152602001807f6f6e636861696e537562736372696265720000000000000000000000000000008152506011019150506040516020818303038152906040528051906020012083614645576000614648565b60015b6040518363ffffffff167c0100000000000000000000000000000000000000000000000000000000028152600401808381526020018260ff16815260200192505050600060405180830381600087803b1580156146a457600080fd5b505af11580156146b8573d6000803e3d6000fd5b50505050505050505050565b600560009054906101000a900473ffffffffffffffffffffffffffffffffffffffff1673ffffffffffffffffffffffffffffffffffffffff166354c552db8260405160200180807f7175657269657300000000000000000000000000000000000000000000000000815250600701828152602001807f7374617475730000000000000000000000000000000000000000000000000000815250600601915050604051602081830303815290604052805190602001206001600281111561478657fe5b6040518363ffffffff167c01000000000000000000000000000000000000000000000000000000000281526004018083815260200182815260200192505050600060405180830381600087803b1580156147df57600080fd5b505af11580156147f3573d6000803e3d6000fd5b5050505050565b60008151905060006a636f6e736f6c652e6c6f679050602083016000808483855afa505050505056fea165627a7a723058207d23bd50f1b6a77e9224f3c1a72ec320035080eb16ee4d3220cf950e3988cefe0029",
  "linkReferences": {},
  "deployedLinkReferences": {}
}