{
  "_format": "hh-sol-artifact-1",
  "contractName": "Zap",
  "sourceName": "contracts/Zap.sol",
  "abi": [
    {
      "constant": true,
      "inputs": [],
      "name": "mintingFinished",
      "outputs": [
        {
          "name": "",
          "type": "bool"
        }
      ],
      "payable": false,
      "stateMutability": "view",
      "type": "function"
    },
    {
      "constant": true,
      "inputs": [],
      "name": "name",
      "outputs": [
        {
          "name": "",
          "type": "string"
        }
      ],
      "payable": false,
      "stateMutability": "view",
      "type": "function"
    },
    {
      "constant": false,
      "inputs": [
        {
          "name": "_spender",
          "type": "address"
        },
        {
          "name": "_amount",
          "type": "uint256"
        }
      ],
      "name": "approve",
      "outputs": [
        {
          "name": "",
          "type": "bool"
        }
      ],
      "payable": false,
      "stateMutability": "nonpayable",
      "type": "function"
    },
    {
      "constant": false,
      "inputs": [],
      "name": "depositStake",
      "outputs": [],
      "payable": false,
      "stateMutability": "nonpayable",
      "type": "function"
    },
    {
      "constant": true,
      "inputs": [],
      "name": "totalSupply",
      "outputs": [
        {
          "name": "",
          "type": "uint256"
        }
      ],
      "payable": false,
      "stateMutability": "view",
      "type": "function"
    },
    {
      "constant": false,
      "inputs": [
        {
          "name": "_from",
          "type": "address"
        },
        {
          "name": "_to",
          "type": "address"
        },
        {
          "name": "_amount",
          "type": "uint256"
        }
      ],
      "name": "transferFrom",
      "outputs": [
        {
          "name": "",
          "type": "bool"
        }
      ],
      "payable": false,
      "stateMutability": "nonpayable",
      "type": "function"
    },
    {
      "constant": false,
      "inputs": [
        {
          "name": "_propNewZapAddress",
          "type": "address"
        }
      ],
      "name": "proposeFork",
      "outputs": [],
      "payable": false,
      "stateMutability": "nonpayable",
      "type": "function"
    },
    {
      "constant": false,
      "inputs": [],
      "name": "requestStakingWithdraw",
      "outputs": [],
      "payable": false,
      "stateMutability": "nonpayable",
      "type": "function"
    },
    {
      "constant": true,
      "inputs": [],
      "name": "decimals",
      "outputs": [
        {
          "name": "",
          "type": "uint256"
        }
      ],
      "payable": false,
      "stateMutability": "view",
      "type": "function"
    },
    {
      "constant": false,
      "inputs": [
        {
          "name": "_c_sapi",
          "type": "string"
        },
        {
          "name": "_c_symbol",
          "type": "string"
        },
        {
          "name": "_granularity",
          "type": "uint256"
        },
        {
          "name": "_tip",
          "type": "uint256"
        }
      ],
      "name": "requestData",
      "outputs": [],
      "payable": false,
      "stateMutability": "nonpayable",
      "type": "function"
    },
    {
      "constant": false,
      "inputs": [
        {
          "name": "_to",
          "type": "address"
        },
        {
          "name": "_amount",
          "type": "uint256"
        }
      ],
      "name": "mint",
      "outputs": [
        {
          "name": "",
          "type": "bool"
        }
      ],
      "payable": false,
      "stateMutability": "nonpayable",
      "type": "function"
    },
    {
      "constant": false,
      "inputs": [
        {
          "name": "_disputeId",
          "type": "uint256"
        }
      ],
      "name": "tallyVotes",
      "outputs": [],
      "payable": false,
      "stateMutability": "nonpayable",
      "type": "function"
    },
    {
      "constant": false,
      "inputs": [
        {
          "name": "_spender",
          "type": "address"
        },
        {
          "name": "_subtractedValue",
          "type": "uint256"
        }
      ],
      "name": "decreaseApproval",
      "outputs": [
        {
          "name": "success",
          "type": "bool"
        }
      ],
      "payable": false,
      "stateMutability": "nonpayable",
      "type": "function"
    },
    {
      "constant": false,
      "inputs": [
        {
          "name": "_nonce",
          "type": "string"
        },
        {
          "name": "_requestId",
          "type": "uint256"
        },
        {
          "name": "_value",
          "type": "uint256"
        }
      ],
      "name": "submitMiningSolution",
      "outputs": [],
      "payable": false,
      "stateMutability": "nonpayable",
      "type": "function"
    },
    {
      "constant": true,
      "inputs": [
        {
          "name": "_user",
          "type": "address"
        }
      ],
      "name": "balanceOf",
      "outputs": [
        {
          "name": "balance",
          "type": "uint256"
        }
      ],
      "payable": false,
      "stateMutability": "view",
      "type": "function"
    },
    {
      "constant": false,
      "inputs": [
        {
          "name": "_requestId",
          "type": "uint256"
        },
        {
          "name": "_tip",
          "type": "uint256"
        }
      ],
      "name": "addTip",
      "outputs": [],
      "payable": false,
      "stateMutability": "nonpayable",
      "type": "function"
    },
    {
      "constant": false,
      "inputs": [],
      "name": "finishMinting",
      "outputs": [
        {
          "name": "",
          "type": "bool"
        }
      ],
      "payable": false,
      "stateMutability": "nonpayable",
      "type": "function"
    },
    {
      "constant": false,
      "inputs": [
        {
          "name": "_requestId",
          "type": "uint256"
        },
        {
          "name": "_timestamp",
          "type": "uint256"
        },
        {
          "name": "_minerIndex",
          "type": "uint256"
        }
      ],
      "name": "beginDispute",
      "outputs": [],
      "payable": false,
      "stateMutability": "nonpayable",
      "type": "function"
    },
    {
      "constant": true,
      "inputs": [],
      "name": "owner",
      "outputs": [
        {
          "name": "",
          "type": "address"
        }
      ],
      "payable": false,
      "stateMutability": "view",
      "type": "function"
    },
    {
      "constant": true,
      "inputs": [],
      "name": "symbol",
      "outputs": [
        {
          "name": "",
          "type": "string"
        }
      ],
      "payable": false,
      "stateMutability": "view",
      "type": "function"
    },
    {
      "constant": false,
      "inputs": [
        {
          "name": "_to",
          "type": "address"
        },
        {
          "name": "_amount",
          "type": "uint256"
        }
      ],
      "name": "transfer",
      "outputs": [
        {
          "name": "",
          "type": "bool"
        }
      ],
      "payable": false,
      "stateMutability": "nonpayable",
      "type": "function"
    },
    {
      "constant": false,
      "inputs": [
        {
          "name": "_address",
          "type": "address"
        },
        {
          "name": "_amount",
          "type": "uint256"
        }
      ],
      "name": "theLazyCoon",
      "outputs": [],
      "payable": false,
      "stateMutability": "nonpayable",
      "type": "function"
    },
    {
      "constant": false,
      "inputs": [
        {
          "name": "to",
          "type": "address"
        },
        {
          "name": "amount",
          "type": "uint256"
        }
      ],
      "name": "allocate",
      "outputs": [],
      "payable": false,
      "stateMutability": "nonpayable",
      "type": "function"
    },
    {
      "constant": false,
      "inputs": [],
      "name": "withdrawStake",
      "outputs": [],
      "payable": false,
      "stateMutability": "nonpayable",
      "type": "function"
    },
    {
      "constant": false,
      "inputs": [
        {
          "name": "_disputeId",
          "type": "uint256"
        },
        {
          "name": "_supportsDispute",
          "type": "bool"
        }
      ],
      "name": "vote",
      "outputs": [],
      "payable": false,
      "stateMutability": "nonpayable",
      "type": "function"
    },
    {
      "constant": false,
      "inputs": [
        {
          "name": "_spender",
          "type": "address"
        },
        {
          "name": "_addedValue",
          "type": "uint256"
        }
      ],
      "name": "increaseApproval",
      "outputs": [
        {
          "name": "success",
          "type": "bool"
        }
      ],
      "payable": false,
      "stateMutability": "nonpayable",
      "type": "function"
    },
    {
      "constant": true,
      "inputs": [
        {
          "name": "_owner",
          "type": "address"
        },
        {
          "name": "_spender",
          "type": "address"
        }
      ],
      "name": "allowance",
      "outputs": [
        {
          "name": "remaining",
          "type": "uint256"
        }
      ],
      "payable": false,
      "stateMutability": "view",
      "type": "function"
    },
    {
      "constant": false,
      "inputs": [
        {
          "name": "_newOwner",
          "type": "address"
        }
      ],
      "name": "transferOwnership",
      "outputs": [],
      "payable": false,
      "stateMutability": "nonpayable",
      "type": "function"
    },
    {
      "inputs": [
        {
          "name": "zapToken",
          "type": "address"
        }
      ],
      "payable": false,
      "stateMutability": "nonpayable",
      "type": "constructor"
    },
    {
      "anonymous": false,
      "inputs": [
        {
          "indexed": true,
          "name": "to",
          "type": "address"
        },
        {
          "indexed": false,
          "name": "amount",
          "type": "uint256"
        }
      ],
      "name": "Mint",
      "type": "event"
    },
    {
      "anonymous": false,
      "inputs": [],
      "name": "MintFinished",
      "type": "event"
    },
    {
      "anonymous": false,
      "inputs": [
        {
          "indexed": true,
          "name": "previousOwner",
          "type": "address"
        },
        {
          "indexed": true,
          "name": "newOwner",
          "type": "address"
        }
      ],
      "name": "OwnershipTransferred",
      "type": "event"
    },
    {
      "anonymous": false,
      "inputs": [
        {
          "indexed": true,
          "name": "owner",
          "type": "address"
        },
        {
          "indexed": true,
          "name": "spender",
          "type": "address"
        },
        {
          "indexed": false,
          "name": "value",
          "type": "uint256"
        }
      ],
      "name": "Approval",
      "type": "event"
    },
    {
      "anonymous": false,
      "inputs": [
        {
          "indexed": true,
          "name": "from",
          "type": "address"
        },
        {
          "indexed": true,
          "name": "to",
          "type": "address"
        },
        {
          "indexed": false,
          "name": "value",
          "type": "uint256"
        }
      ],
      "name": "Transfer",
      "type": "event"
    }
  ],
  "bytecode": "0x60806040526000600360146101000a81548160ff0219169083151502179055506040805190810160405280600381526020017f5a61700000000000000000000000000000000000000000000000000000000000815250600490805190602001906200006c92919062000189565b506040805190810160405280600381526020017f5a4150000000000000000000000000000000000000000000000000000000000081525060059080519060200190620000ba92919062000189565b506012600655348015620000cd57600080fd5b506040516020806200252a83398101806040526020811015620000ef57600080fd5b810190808051906020019092919050505033600360006101000a81548173ffffffffffffffffffffffffffffffffffffffff021916908373ffffffffffffffffffffffffffffffffffffffff16021790555080605260006101000a81548173ffffffffffffffffffffffffffffffffffffffff021916908373ffffffffffffffffffffffffffffffffffffffff1602179055505062000238565b828054600181600116156101000203166002900490600052602060002090601f016020900481019282601f10620001cc57805160ff1916838001178555620001fd565b82800160010185558215620001fd579182015b82811115620001fc578251825591602001919060010190620001df565b5b5090506200020c919062000210565b5090565b6200023591905b808211156200023157600081600090555060010162000217565b5090565b90565b6122e280620002486000396000f3fe608060405260043610610164576000357c01000000000000000000000000000000000000000000000000000000009004806305d2035b1461016957806306fdde0314610198578063095ea7b3146102285780630d2d76a21461029b57806318160ddd146102b257806323b872dd146102dd57806326b7d9f61461037057806328449c3a146103c1578063313ce567146103d85780633fff28161461040357806340c10f19146104f25780634d318b0e1461056557806366188463146105a057806368c180d51461061357806370a08231146106ad578063752d49a1146107125780637d64bcb4146107575780638581af19146107865780638da5cb5b146107d557806395d89b411461082c578063a9059cbb146108bc578063b079f64a1461092f578063b78b52df1461098a578063bed9d861146109e5578063c9d27afe146109fc578063d73dd62314610a43578063dd62ed3e14610ab6578063f2fde38b14610b3b575b600080fd5b34801561017557600080fd5b5061017e610b8c565b604051808215151515815260200191505060405180910390f35b3480156101a457600080fd5b506101ad610b9f565b6040518080602001828103825283818151815260200191508051906020019080838360005b838110156101ed5780820151818401526020810190506101d2565b50505050905090810190601f16801561021a5780820380516001836020036101000a031916815260200191505b509250505060405180910390f35b34801561023457600080fd5b506102816004803603604081101561024b57600080fd5b81019080803573ffffffffffffffffffffffffffffffffffffffff16906020019092919080359060200190929190505050610c3d565b604051808215151515815260200191505060405180910390f35b3480156102a757600080fd5b506102b0610d47565b005b3480156102be57600080fd5b506102c7610dcf565b6040518082815260200191505060405180910390f35b3480156102e957600080fd5b506103566004803603606081101561030057600080fd5b81019080803573ffffffffffffffffffffffffffffffffffffffff169060200190929190803573ffffffffffffffffffffffffffffffffffffffff16906020019092919080359060200190929190505050610dd5565b604051808215151515815260200191505060405180910390f35b34801561037c57600080fd5b506103bf6004803603602081101561039357600080fd5b81019080803573ffffffffffffffffffffffffffffffffffffffff169060200190929190505050610f14565b005b3480156103cd57600080fd5b506103d6610fd1565b005b3480156103e457600080fd5b506103ed611059565b6040518082815260200191505060405180910390f35b34801561040f57600080fd5b506104f06004803603608081101561042657600080fd5b810190808035906020019064010000000081111561044357600080fd5b82018360208201111561045557600080fd5b8035906020019184600183028401116401000000008311171561047757600080fd5b90919293919293908035906020019064010000000081111561049857600080fd5b8201836020820111156104aa57600080fd5b803590602001918460018302840111640100000000831117156104cc57600080fd5b9091929391929390803590602001909291908035906020019092919050505061105f565b005b3480156104fe57600080fd5b5061054b6004803603604081101561051557600080fd5b81019080803573ffffffffffffffffffffffffffffffffffffffff16906020019092919080359060200190929190505050611165565b604051808215151515815260200191505060405180910390f35b34801561057157600080fd5b5061059e6004803603602081101561058857600080fd5b810190808035906020019092919050505061134d565b005b3480156105ac57600080fd5b506105f9600480360360408110156105c357600080fd5b81019080803573ffffffffffffffffffffffffffffffffffffffff169060200190929190803590602001909291905050506113de565b604051808215151515815260200191505060405180910390f35b34801561061f57600080fd5b506106ab6004803603606081101561063657600080fd5b810190808035906020019064010000000081111561065357600080fd5b82018360208201111561066557600080fd5b8035906020019184600183028401116401000000008311171561068757600080fd5b9091929391929390803590602001909291908035906020019092919050505061166f565b005b3480156106b957600080fd5b506106fc600480360360208110156106d057600080fd5b81019080803573ffffffffffffffffffffffffffffffffffffffff16906020019092919050505061173f565b6040518082815260200191505060405180910390f35b34801561071e57600080fd5b506107556004803603604081101561073557600080fd5b81019080803590602001909291908035906020019092919050505061183e565b005b34801561076357600080fd5b5061076c6118d8565b604051808215151515815260200191505060405180910390f35b34801561079257600080fd5b506107d3600480360360608110156107a957600080fd5b81019080803590602001909291908035906020019092919080359060200190929190505050611984565b005b3480156107e157600080fd5b506107ea611a27565b604051808273ffffffffffffffffffffffffffffffffffffffff1673ffffffffffffffffffffffffffffffffffffffff16815260200191505060405180910390f35b34801561083857600080fd5b50610841611a4d565b6040518080602001828103825283818151815260200191508051906020019080838360005b83811015610881578082015181840152602081019050610866565b50505050905090810190601f1680156108ae5780820380516001836020036101000a031916815260200191505b509250505060405180910390f35b3480156108c857600080fd5b50610915600480360360408110156108df57600080fd5b81019080803573ffffffffffffffffffffffffffffffffffffffff16906020019092919080359060200190929190505050611aeb565b604051808215151515815260200191505060405180910390f35b34801561093b57600080fd5b506109886004803603604081101561095257600080fd5b81019080803573ffffffffffffffffffffffffffffffffffffffff16906020019092919080359060200190929190505050611bf5565b005b34801561099657600080fd5b506109e3600480360360408110156109ad57600080fd5b81019080803573ffffffffffffffffffffffffffffffffffffffff16906020019092919080359060200190929190505050611cbb565b005b3480156109f157600080fd5b506109fa611cca565b005b348015610a0857600080fd5b50610a4160048036036040811015610a1f57600080fd5b8101908080359060200190929190803515159060200190929190505050611d52565b005b348015610a4f57600080fd5b50610a9c60048036036040811015610a6657600080fd5b81019080803573ffffffffffffffffffffffffffffffffffffffff16906020019092919080359060200190929190505050611df0565b604051808215151515815260200191505060405180910390f35b348015610ac257600080fd5b50610b2560048036036040811015610ad957600080fd5b81019080803573ffffffffffffffffffffffffffffffffffffffff169060200190929190803573ffffffffffffffffffffffffffffffffffffffff169060200190929190505050611fec565b6040518082815260200191505060405180910390f35b348015610b4757600080fd5b50610b8a60048036036020811015610b5e57600080fd5b81019080803573ffffffffffffffffffffffffffffffffffffffff169060200190929190505050612073565b005b600360149054906101000a900460ff1681565b60048054600181600116156101000203166002900480601f016020809104026020016040519081016040528092919081815260200182805460018160011615610100020316600290048015610c355780601f10610c0a57610100808354040283529160200191610c35565b820191906000526020600020905b815481529060010190602001808311610c1857829003601f168201915b505050505081565b6000605260009054906101000a900473ffffffffffffffffffffffffffffffffffffffff1673ffffffffffffffffffffffffffffffffffffffff1663095ea7b384846040518363ffffffff167c0100000000000000000000000000000000000000000000000000000000028152600401808373ffffffffffffffffffffffffffffffffffffffff1673ffffffffffffffffffffffffffffffffffffffff16815260200182815260200192505050602060405180830381600087803b158015610d0457600080fd5b505af1158015610d18573d6000803e3d6000fd5b505050506040513d6020811015610d2e57600080fd5b8101908080519060200190929190505050905092915050565b600773__$153eba8cfa84c9b3b87ad562e7a2a92ae8$__63326991a390916040518263ffffffff167c01000000000000000000000000000000000000000000000000000000000281526004018082815260200191505060006040518083038186803b158015610db557600080fd5b505af4158015610dc9573d6000803e3d6000fd5b50505050565b60005481565b6000605260009054906101000a900473ffffffffffffffffffffffffffffffffffffffff1673ffffffffffffffffffffffffffffffffffffffff166323b872dd8585856040518463ffffffff167c0100000000000000000000000000000000000000000000000000000000028152600401808473ffffffffffffffffffffffffffffffffffffffff1673ffffffffffffffffffffffffffffffffffffffff1681526020018373ffffffffffffffffffffffffffffffffffffffff1673ffffffffffffffffffffffffffffffffffffffff1681526020018281526020019350505050602060405180830381600087803b158015610ed057600080fd5b505af1158015610ee4573d6000803e3d6000fd5b505050506040513d6020811015610efa57600080fd5b810190808051906020019092919050505090509392505050565b600773__$a129b1b574282adaa6f30b90cf6e0e269c$__63804b89319091836040518363ffffffff167c0100000000000000000000000000000000000000000000000000000000028152600401808381526020018273ffffffffffffffffffffffffffffffffffffffff1673ffffffffffffffffffffffffffffffffffffffff1681526020019250505060006040518083038186803b158015610fb657600080fd5b505af4158015610fca573d6000803e3d6000fd5b5050505050565b600773__$153eba8cfa84c9b3b87ad562e7a2a92ae8$__633c73482790916040518263ffffffff167c01000000000000000000000000000000000000000000000000000000000281526004018082815260200191505060006040518083038186803b15801561103f57600080fd5b505af4158015611053573d6000803e3d6000fd5b50505050565b60065481565b600773__$b6c6c75b7fe282ad3978f7b93c6bd5e6c9$__6393c0d5d790918888888888886040518863ffffffff167c01000000000000000000000000000000000000000000000000000000000281526004018088815260200180602001806020018581526020018481526020018381038352898982818152602001925080828437600081840152601f19601f8201169050808301925050508381038252878782818152602001925080828437600081840152601f19601f820116905080830192505050995050505050505050505060006040518083038186803b15801561114557600080fd5b505af4158015611159573d6000803e3d6000fd5b50505050505050505050565b6000600360009054906101000a900473ffffffffffffffffffffffffffffffffffffffff1673ffffffffffffffffffffffffffffffffffffffff163373ffffffffffffffffffffffffffffffffffffffff161415156111c357600080fd5b600360149054906101000a900460ff161515156111df57600080fd5b6111f48260005461208a90919063ffffffff16565b60008190555061124c82600160008673ffffffffffffffffffffffffffffffffffffffff1673ffffffffffffffffffffffffffffffffffffffff1681526020019081526020016000205461208a90919063ffffffff16565b600160008573ffffffffffffffffffffffffffffffffffffffff1673ffffffffffffffffffffffffffffffffffffffff168152602001908152602001600020819055508273ffffffffffffffffffffffffffffffffffffffff167f0f6798a560793a54c3bcfe86a93cde1e73087d944c0ea20544137d4121396885836040518082815260200191505060405180910390a28273ffffffffffffffffffffffffffffffffffffffff16600073ffffffffffffffffffffffffffffffffffffffff167fddf252ad1be2c89b69c2b068fc378daa952ba7f163c4a11628f55a4df523b3ef846040518082815260200191505060405180910390a36001905092915050565b600773__$a129b1b574282adaa6f30b90cf6e0e269c$__633cedafe59091836040518363ffffffff167c0100000000000000000000000000000000000000000000000000000000028152600401808381526020018281526020019250505060006040518083038186803b1580156113c357600080fd5b505af41580156113d7573d6000803e3d6000fd5b5050505050565b600080600260003373ffffffffffffffffffffffffffffffffffffffff1673ffffffffffffffffffffffffffffffffffffffff16815260200190815260200160002060008573ffffffffffffffffffffffffffffffffffffffff1673ffffffffffffffffffffffffffffffffffffffff168152602001908152602001600020549050808311156114ef576000600260003373ffffffffffffffffffffffffffffffffffffffff1673ffffffffffffffffffffffffffffffffffffffff16815260200190815260200160002060008673ffffffffffffffffffffffffffffffffffffffff1673ffffffffffffffffffffffffffffffffffffffff16815260200190815260200160002081905550611583565b61150283826120a890919063ffffffff16565b600260003373ffffffffffffffffffffffffffffffffffffffff1673ffffffffffffffffffffffffffffffffffffffff16815260200190815260200160002060008673ffffffffffffffffffffffffffffffffffffffff1673ffffffffffffffffffffffffffffffffffffffff168152602001908152602001600020819055505b8373ffffffffffffffffffffffffffffffffffffffff163373ffffffffffffffffffffffffffffffffffffffff167f8c5be1e5ebec7d5bd14f71427d1e84f3dd0314c0f7b2291e5b200ac8c7c3b925600260003373ffffffffffffffffffffffffffffffffffffffff1673ffffffffffffffffffffffffffffffffffffffff16815260200190815260200160002060008873ffffffffffffffffffffffffffffffffffffffff1673ffffffffffffffffffffffffffffffffffffffff168152602001908152602001600020546040518082815260200191505060405180910390a3600191505092915050565b600773__$b6c6c75b7fe282ad3978f7b93c6bd5e6c9$__63d723552b9091868686866040518663ffffffff167c010000000000000000000000000000000000000000000000000000000002815260040180868152602001806020018481526020018381526020018281038252868682818152602001925080828437600081840152601f19601f820116905080830192505050965050505050505060006040518083038186803b15801561172157600080fd5b505af4158015611735573d6000803e3d6000fd5b5050505050505050565b6000605260009054906101000a900473ffffffffffffffffffffffffffffffffffffffff1673ffffffffffffffffffffffffffffffffffffffff166370a08231836040518263ffffffff167c0100000000000000000000000000000000000000000000000000000000028152600401808273ffffffffffffffffffffffffffffffffffffffff1673ffffffffffffffffffffffffffffffffffffffff16815260200191505060206040518083038186803b1580156117fc57600080fd5b505afa158015611810573d6000803e3d6000fd5b505050506040513d602081101561182657600080fd5b81019080805190602001909291905050509050919050565b600773__$b6c6c75b7fe282ad3978f7b93c6bd5e6c9$__63573e929f909184846040518463ffffffff167c010000000000000000000000000000000000000000000000000000000002815260040180848152602001838152602001828152602001935050505060006040518083038186803b1580156118bc57600080fd5b505af41580156118d0573d6000803e3d6000fd5b505050505050565b6000600360009054906101000a900473ffffffffffffffffffffffffffffffffffffffff1673ffffffffffffffffffffffffffffffffffffffff163373ffffffffffffffffffffffffffffffffffffffff1614151561193657600080fd5b6001600360146101000a81548160ff0219169083151502179055507fae5184fba832cb2b1f702aca6117b8d265eaf03ad33eb133f19dde0f5920fa0860405160405180910390a16001905090565b600773__$a129b1b574282adaa6f30b90cf6e0e269c$__6360dd6c3590918585856040518563ffffffff167c01000000000000000000000000000000000000000000000000000000000281526004018085815260200184815260200183815260200182815260200194505050505060006040518083038186803b158015611a0a57600080fd5b505af4158015611a1e573d6000803e3d6000fd5b50505050505050565b600360009054906101000a900473ffffffffffffffffffffffffffffffffffffffff1681565b60058054600181600116156101000203166002900480601f016020809104026020016040519081016040528092919081815260200182805460018160011615610100020316600290048015611ae35780601f10611ab857610100808354040283529160200191611ae3565b820191906000526020600020905b815481529060010190602001808311611ac657829003601f168201915b505050505081565b6000605260009054906101000a900473ffffffffffffffffffffffffffffffffffffffff1673ffffffffffffffffffffffffffffffffffffffff1663a9059cbb84846040518363ffffffff167c0100000000000000000000000000000000000000000000000000000000028152600401808373ffffffffffffffffffffffffffffffffffffffff1673ffffffffffffffffffffffffffffffffffffffff16815260200182815260200192505050602060405180830381600087803b158015611bb257600080fd5b505af1158015611bc6573d6000803e3d6000fd5b505050506040513d6020811015611bdc57600080fd5b8101908080519060200190929190505050905092915050565b600773__$b6c6c75b7fe282ad3978f7b93c6bd5e6c9$__6327baf42e909184846040518463ffffffff167c0100000000000000000000000000000000000000000000000000000000028152600401808481526020018373ffffffffffffffffffffffffffffffffffffffff1673ffffffffffffffffffffffffffffffffffffffff168152602001828152602001935050505060006040518083038186803b158015611c9f57600080fd5b505af4158015611cb3573d6000803e3d6000fd5b505050505050565b611cc58282611165565b505050565b600773__$153eba8cfa84c9b3b87ad562e7a2a92ae8$__6378bfa27790916040518263ffffffff167c01000000000000000000000000000000000000000000000000000000000281526004018082815260200191505060006040518083038186803b158015611d3857600080fd5b505af4158015611d4c573d6000803e3d6000fd5b50505050565b600773__$a129b1b574282adaa6f30b90cf6e0e269c$__63bcc7a8a8909184846040518463ffffffff167c01000000000000000000000000000000000000000000000000000000000281526004018084815260200183815260200182151515158152602001935050505060006040518083038186803b158015611dd457600080fd5b505af4158015611de8573d6000803e3d6000fd5b505050505050565b6000611e8182600260003373ffffffffffffffffffffffffffffffffffffffff1673ffffffffffffffffffffffffffffffffffffffff16815260200190815260200160002060008673ffffffffffffffffffffffffffffffffffffffff1673ffffffffffffffffffffffffffffffffffffffff1681526020019081526020016000205461208a90919063ffffffff16565b600260003373ffffffffffffffffffffffffffffffffffffffff1673ffffffffffffffffffffffffffffffffffffffff16815260200190815260200160002060008573ffffffffffffffffffffffffffffffffffffffff1673ffffffffffffffffffffffffffffffffffffffff168152602001908152602001600020819055508273ffffffffffffffffffffffffffffffffffffffff163373ffffffffffffffffffffffffffffffffffffffff167f8c5be1e5ebec7d5bd14f71427d1e84f3dd0314c0f7b2291e5b200ac8c7c3b925600260003373ffffffffffffffffffffffffffffffffffffffff1673ffffffffffffffffffffffffffffffffffffffff16815260200190815260200160002060008773ffffffffffffffffffffffffffffffffffffffff1673ffffffffffffffffffffffffffffffffffffffff168152602001908152602001600020546040518082815260200191505060405180910390a36001905092915050565b6000600260008473ffffffffffffffffffffffffffffffffffffffff1673ffffffffffffffffffffffffffffffffffffffff16815260200190815260200160002060008373ffffffffffffffffffffffffffffffffffffffff1673ffffffffffffffffffffffffffffffffffffffff16815260200190815260200160002054905092915050565b6120878160076120c190919063ffffffff16565b50565b600080828401905083811015151561209e57fe5b8091505092915050565b60008282111515156120b657fe5b818303905092915050565b81603f01600060405180807f5f6f776e6572000000000000000000000000000000000000000000000000000081525060060190506040518091039020815260200190815260200160002060009054906101000a900473ffffffffffffffffffffffffffffffffffffffff1673ffffffffffffffffffffffffffffffffffffffff163373ffffffffffffffffffffffffffffffffffffffff1614151561216557600080fd5b8073ffffffffffffffffffffffffffffffffffffffff1682603f01600060405180807f5f6f776e6572000000000000000000000000000000000000000000000000000081525060060190506040518091039020815260200190815260200160002060009054906101000a900473ffffffffffffffffffffffffffffffffffffffff1673ffffffffffffffffffffffffffffffffffffffff167f8be0079c531659141344cd1fd0a4f28419497f9722a3daafe3b4186f6b6457e060405160405180910390a38082603f01600060405180807f5f6f776e6572000000000000000000000000000000000000000000000000000081525060060190506040518091039020815260200190815260200160002060006101000a81548173ffffffffffffffffffffffffffffffffffffffff021916908373ffffffffffffffffffffffffffffffffffffffff160217905550505056fea165627a7a72305820192e57d832d054cf0bd8aaad3d947c6b2d7c1a4662baff348ebac25cc11e06d50029",
  "linkReferences": {
    "contracts/libraries/ZapDispute.sol": {
      "ZapDispute": [
        {
          "length": 20,
          "start": 4448
        },
        {
          "length": 20,
          "start": 5529
        },
        {
          "length": 20,
          "start": 7120
        },
        {
          "length": 20,
          "start": 8094
        }
      ]
    },
    "contracts/libraries/ZapLibrary.sol": {
      "ZapLibrary": [
        {
          "length": 20,
          "start": 4779
        },
        {
          "length": 20,
          "start": 6331
        },
        {
          "length": 20,
          "start": 6794
        },
        {
          "length": 20,
          "start": 7745
        }
      ]
    },
    "contracts/libraries/ZapStake.sol": {
      "ZapStake": [
        {
          "length": 20,
          "start": 3987
        },
        {
          "length": 20,
          "start": 4637
        },
        {
          "length": 20,
          "start": 7958
        }
      ]
    }
  },
  "deployedLinkReferences": {
    "contracts/libraries/ZapDispute.sol": {
      "ZapDispute": [
        {
          "length": 20,
          "start": 3864
        },
        {
          "length": 20,
          "start": 4945
        },
        {
          "length": 20,
          "start": 6536
        },
        {
          "length": 20,
          "start": 7510
        }
      ]
    },
    "contracts/libraries/ZapLibrary.sol": {
      "ZapLibrary": [
        {
          "length": 20,
          "start": 4195
        },
        {
          "length": 20,
          "start": 5747
        },
        {
          "length": 20,
          "start": 6210
        },
        {
          "length": 20,
          "start": 7161
        }
      ]
    },
    "contracts/libraries/ZapStake.sol": {
      "ZapStake": [
        {
          "length": 20,
          "start": 3403
        },
        {
          "length": 20,
          "start": 4053
        },
        {
          "length": 20,
          "start": 7374
        }
      ]
    }
  }
}