{
  "_format": "hh-sol-artifact-1",
  "contractName": "ZapGetters",
  "sourceName": "contracts/ZapGetters.sol",
  "abi": [
    {
      "constant": true,
      "inputs": [
        {
          "name": "_timestamp",
          "type": "uint256"
        }
      ],
      "name": "getRequestIdByTimestamp",
      "outputs": [
        {
          "name": "",
          "type": "uint256"
        }
      ],
      "payable": false,
      "stateMutability": "view",
      "type": "function"
    },
    {
      "constant": true,
      "inputs": [
        {
          "name": "_requestId",
          "type": "uint256"
        },
        {
          "name": "_timestamp",
          "type": "uint256"
        }
      ],
      "name": "getSubmissionsByTimestamp",
      "outputs": [
        {
          "name": "",
          "type": "uint256[5]"
        }
      ],
      "payable": false,
      "stateMutability": "view",
      "type": "function"
    },
    {
      "constant": true,
      "inputs": [
        {
          "name": "_data",
          "type": "bytes32"
        }
      ],
      "name": "getAddressVars",
      "outputs": [
        {
          "name": "",
          "type": "address"
        }
      ],
      "payable": false,
      "stateMutability": "view",
      "type": "function"
    },
    {
      "constant": true,
      "inputs": [],
      "name": "getSymbol",
      "outputs": [
        {
          "name": "",
          "type": "string"
        }
      ],
      "payable": false,
      "stateMutability": "view",
      "type": "function"
    },
    {
      "constant": true,
      "inputs": [],
      "name": "getName",
      "outputs": [
        {
          "name": "",
          "type": "string"
        }
      ],
      "payable": false,
      "stateMutability": "view",
      "type": "function"
    },
    {
      "constant": true,
      "inputs": [],
      "name": "totalSupply",
      "outputs": [
        {
          "name": "",
          "type": "uint256"
        }
      ],
      "payable": false,
      "stateMutability": "view",
      "type": "function"
    },
    {
      "constant": true,
      "inputs": [],
      "name": "getVariablesOnDeck",
      "outputs": [
        {
          "name": "",
          "type": "uint256"
        },
        {
          "name": "",
          "type": "uint256"
        },
        {
          "name": "",
          "type": "string"
        }
      ],
      "payable": false,
      "stateMutability": "view",
      "type": "function"
    },
    {
      "constant": true,
      "inputs": [
        {
          "name": "_request",
          "type": "bytes32"
        }
      ],
      "name": "getRequestIdByQueryHash",
      "outputs": [
        {
          "name": "",
          "type": "uint256"
        }
      ],
      "payable": false,
      "stateMutability": "view",
      "type": "function"
    },
    {
      "constant": true,
      "inputs": [
        {
          "name": "_requestId",
          "type": "uint256"
        }
      ],
      "name": "getLastNewValueById",
      "outputs": [
        {
          "name": "",
          "type": "uint256"
        },
        {
          "name": "",
          "type": "bool"
        }
      ],
      "payable": false,
      "stateMutability": "view",
      "type": "function"
    },
    {
      "constant": true,
      "inputs": [
        {
          "name": "_requestId",
          "type": "uint256"
        },
        {
          "name": "_timestamp",
          "type": "uint256"
        }
      ],
      "name": "isInDispute",
      "outputs": [
        {
          "name": "",
          "type": "bool"
        }
      ],
      "payable": false,
      "stateMutability": "view",
      "type": "function"
    },
    {
      "constant": true,
      "inputs": [
        {
          "name": "_requestId",
          "type": "uint256"
        }
      ],
      "name": "getNewValueCountbyRequestId",
      "outputs": [
        {
          "name": "",
          "type": "uint256"
        }
      ],
      "payable": false,
      "stateMutability": "view",
      "type": "function"
    },
    {
      "constant": true,
      "inputs": [
        {
          "name": "_user",
          "type": "address"
        },
        {
          "name": "_blockNumber",
          "type": "uint256"
        }
      ],
      "name": "balanceOfAt",
      "outputs": [
        {
          "name": "",
          "type": "uint256"
        }
      ],
      "payable": false,
      "stateMutability": "view",
      "type": "function"
    },
    {
      "constant": true,
      "inputs": [
        {
          "name": "_data",
          "type": "bytes32"
        }
      ],
      "name": "getUintVar",
      "outputs": [
        {
          "name": "",
          "type": "uint256"
        }
      ],
      "payable": false,
      "stateMutability": "view",
      "type": "function"
    },
    {
      "constant": true,
      "inputs": [
        {
          "name": "_index",
          "type": "uint256"
        }
      ],
      "name": "getRequestIdByRequestQIndex",
      "outputs": [
        {
          "name": "",
          "type": "uint256"
        }
      ],
      "payable": false,
      "stateMutability": "view",
      "type": "function"
    },
    {
      "constant": true,
      "inputs": [
        {
          "name": "_challenge",
          "type": "bytes32"
        },
        {
          "name": "_miner",
          "type": "address"
        }
      ],
      "name": "didMine",
      "outputs": [
        {
          "name": "",
          "type": "bool"
        }
      ],
      "payable": false,
      "stateMutability": "view",
      "type": "function"
    },
    {
      "constant": true,
      "inputs": [
        {
          "name": "_requestId",
          "type": "uint256"
        },
        {
          "name": "_timestamp",
          "type": "uint256"
        }
      ],
      "name": "getMinersByRequestIdAndTimestamp",
      "outputs": [
        {
          "name": "",
          "type": "address[5]"
        }
      ],
      "payable": false,
      "stateMutability": "view",
      "type": "function"
    },
    {
      "constant": true,
      "inputs": [
        {
          "name": "_user",
          "type": "address"
        }
      ],
      "name": "balanceOf",
      "outputs": [
        {
          "name": "",
          "type": "uint256"
        }
      ],
      "payable": false,
      "stateMutability": "view",
      "type": "function"
    },
    {
      "constant": true,
      "inputs": [
        {
          "name": "_staker",
          "type": "address"
        }
      ],
      "name": "getStakerInfo",
      "outputs": [
        {
          "name": "",
          "type": "uint256"
        },
        {
          "name": "",
          "type": "uint256"
        }
      ],
      "payable": false,
      "stateMutability": "view",
      "type": "function"
    },
    {
      "constant": true,
      "inputs": [
        {
          "name": "_requestID",
          "type": "uint256"
        },
        {
          "name": "_index",
          "type": "uint256"
        }
      ],
      "name": "getTimestampbyRequestIDandIndex",
      "outputs": [
        {
          "name": "",
          "type": "uint256"
        }
      ],
      "payable": false,
      "stateMutability": "view",
      "type": "function"
    },
    {
      "constant": true,
      "inputs": [
        {
          "name": "_disputeId",
          "type": "uint256"
        },
        {
          "name": "_data",
          "type": "bytes32"
        }
      ],
      "name": "getDisputeUintVars",
      "outputs": [
        {
          "name": "",
          "type": "uint256"
        }
      ],
      "payable": false,
      "stateMutability": "view",
      "type": "function"
    },
    {
      "constant": true,
      "inputs": [
        {
          "name": "_requestId",
          "type": "uint256"
        },
        {
          "name": "_timestamp",
          "type": "uint256"
        }
      ],
      "name": "retrieveData",
      "outputs": [
        {
          "name": "",
          "type": "uint256"
        }
      ],
      "payable": false,
      "stateMutability": "view",
      "type": "function"
    },
    {
      "constant": true,
      "inputs": [
        {
          "name": "_user",
          "type": "address"
        },
        {
          "name": "_amount",
          "type": "uint256"
        }
      ],
      "name": "allowedToTrade",
      "outputs": [
        {
          "name": "",
          "type": "bool"
        }
      ],
      "payable": false,
      "stateMutability": "view",
      "type": "function"
    },
    {
      "constant": true,
      "inputs": [],
      "name": "getCurrentVariables",
      "outputs": [
        {
          "name": "",
          "type": "bytes32"
        },
        {
          "name": "",
          "type": "uint256"
        },
        {
          "name": "",
          "type": "uint256"
        },
        {
          "name": "",
          "type": "string"
        },
        {
          "name": "",
          "type": "uint256"
        },
        {
          "name": "",
          "type": "uint256"
        }
      ],
      "payable": false,
      "stateMutability": "view",
      "type": "function"
    },
    {
      "constant": true,
      "inputs": [
        {
          "name": "_disputeId",
          "type": "uint256"
        },
        {
          "name": "_address",
          "type": "address"
        }
      ],
      "name": "didVote",
      "outputs": [
        {
          "name": "",
          "type": "bool"
        }
      ],
      "payable": false,
      "stateMutability": "view",
      "type": "function"
    },
    {
      "constant": true,
      "inputs": [
        {
          "name": "_disputeId",
          "type": "uint256"
        }
      ],
      "name": "getAllDisputeVars",
      "outputs": [
        {
          "name": "",
          "type": "bytes32"
        },
        {
          "name": "",
          "type": "bool"
        },
        {
          "name": "",
          "type": "bool"
        },
        {
          "name": "",
          "type": "bool"
        },
        {
          "name": "",
          "type": "address"
        },
        {
          "name": "",
          "type": "address"
        },
        {
          "name": "",
          "type": "address"
        },
        {
          "name": "",
          "type": "uint256[9]"
        },
        {
          "name": "",
          "type": "int256"
        }
      ],
      "payable": false,
      "stateMutability": "view",
      "type": "function"
    },
    {
      "constant": true,
      "inputs": [],
      "name": "getRequestQ",
      "outputs": [
        {
          "name": "",
          "type": "uint256[51]"
        }
      ],
      "payable": false,
      "stateMutability": "view",
      "type": "function"
    },
    {
      "constant": true,
      "inputs": [
        {
          "name": "_requestId",
          "type": "uint256"
        },
        {
          "name": "_timestamp",
          "type": "uint256"
        }
      ],
      "name": "getMinedBlockNum",
      "outputs": [
        {
          "name": "",
          "type": "uint256"
        }
      ],
      "payable": false,
      "stateMutability": "view",
      "type": "function"
    },
    {
      "constant": true,
      "inputs": [
        {
          "name": "_hash",
          "type": "bytes32"
        }
      ],
      "name": "getDisputeIdByDisputeHash",
      "outputs": [
        {
          "name": "",
          "type": "uint256"
        }
      ],
      "payable": false,
      "stateMutability": "view",
      "type": "function"
    },
    {
      "constant": true,
      "inputs": [
        {
          "name": "_user",
          "type": "address"
        },
        {
          "name": "_spender",
          "type": "address"
        }
      ],
      "name": "allowance",
      "outputs": [
        {
          "name": "",
          "type": "uint256"
        }
      ],
      "payable": false,
      "stateMutability": "view",
      "type": "function"
    },
    {
      "constant": true,
      "inputs": [
        {
          "name": "_requestId",
          "type": "uint256"
        },
        {
          "name": "_data",
          "type": "bytes32"
        }
      ],
      "name": "getRequestUintVars",
      "outputs": [
        {
          "name": "",
          "type": "uint256"
        }
      ],
      "payable": false,
      "stateMutability": "view",
      "type": "function"
    },
    {
      "constant": true,
      "inputs": [
        {
          "name": "_requestId",
          "type": "uint256"
        }
      ],
      "name": "getRequestVars",
      "outputs": [
        {
          "name": "",
          "type": "string"
        },
        {
          "name": "",
          "type": "string"
        },
        {
          "name": "",
          "type": "bytes32"
        },
        {
          "name": "",
          "type": "uint256"
        },
        {
          "name": "",
          "type": "uint256"
        },
        {
          "name": "",
          "type": "uint256"
        }
      ],
      "payable": false,
      "stateMutability": "view",
      "type": "function"
    },
    {
      "constant": true,
      "inputs": [],
      "name": "getLastNewValue",
      "outputs": [
        {
          "name": "",
          "type": "uint256"
        },
        {
          "name": "",
          "type": "bool"
        }
      ],
      "payable": false,
      "stateMutability": "view",
      "type": "function"
    }
  ],
  "bytecode": "0x608060405234801561001057600080fd5b50612a9c806100206000396000f3fe608060405260043610610190576000357c0100000000000000000000000000000000000000000000000000000000900480630f0b424d1461019557806311c98512146101e4578063133bee5e1461026557806315070401146102e057806317d7de7c1461037057806318160ddd1461040057806319e8e03b1461042b5780631db842f0146104c95780633180f8df146105185780633df0777b1461057257806346eee1c4146105cf5780634ee2cd7e1461061e578063612c8f7f1461068d5780636173c0b8146106dc57806363bb82ad1461072b57806369026d631461079e57806370a082311461081f578063733bdef01461088457806377fbb663146108f05780637f6fd5d91461094957806393fa4915146109a2578063999cf26c146109fb578063a22e407a14610a6e578063a7c438bc14610b21578063af0b132714610b94578063b541302914610cd3578063c775b54214610d26578063da37994114610d7f578063dd62ed3e14610dce578063e0ae93c114610e53578063e1eee6d614610eac578063fc7cf0a014610fe8575b600080fd5b3480156101a157600080fd5b506101ce600480360360208110156101b857600080fd5b810190808035906020019092919050505061101e565b6040518082815260200191505060405180910390f35b3480156101f057600080fd5b506102276004803603604081101561020757600080fd5b81019080803590602001909291908035906020019092919050505061103b565b6040518082600560200280838360005b83811015610252578082015181840152602081019050610237565b5050505090500191505060405180910390f35b34801561027157600080fd5b5061029e6004803603602081101561028857600080fd5b8101908080359060200190929190505050611061565b604051808273ffffffffffffffffffffffffffffffffffffffff1673ffffffffffffffffffffffffffffffffffffffff16815260200191505060405180910390f35b3480156102ec57600080fd5b506102f561107e565b6040518080602001828103825283818151815260200191508051906020019080838360005b8381101561033557808201518184015260208101905061031a565b50505050905090810190601f1680156103625780820380516001836020036101000a031916815260200191505b509250505060405180910390f35b34801561037c57600080fd5b5061038561108f565b6040518080602001828103825283818151815260200191508051906020019080838360005b838110156103c55780820151818401526020810190506103aa565b50505050905090810190601f1680156103f25780820380516001836020036101000a031916815260200191505b509250505060405180910390f35b34801561040c57600080fd5b506104156110a0565b6040518082815260200191505060405180910390f35b34801561043757600080fd5b506104406110b1565b6040518084815260200183815260200180602001828103825283818151815260200191508051906020019080838360005b8381101561048c578082015181840152602081019050610471565b50505050905090810190601f1680156104b95780820380516001836020036101000a031916815260200191505b5094505050505060405180910390f35b3480156104d557600080fd5b50610502600480360360208110156104ec57600080fd5b81019080803590602001909291905050506110cb565b6040518082815260200191505060405180910390f35b34801561052457600080fd5b506105516004803603602081101561053b57600080fd5b81019080803590602001909291905050506110e8565b60405180838152602001821515151581526020019250505060405180910390f35b34801561057e57600080fd5b506105b56004803603604081101561059557600080fd5b810190808035906020019092919080359060200190929190505050611108565b604051808215151515815260200191505060405180910390f35b3480156105db57600080fd5b50610608600480360360208110156105f257600080fd5b8101908080359060200190929190505050611128565b6040518082815260200191505060405180910390f35b34801561062a57600080fd5b506106776004803603604081101561064157600080fd5b81019080803573ffffffffffffffffffffffffffffffffffffffff16906020019092919080359060200190929190505050611145565b6040518082815260200191505060405180910390f35b34801561069957600080fd5b506106c6600480360360208110156106b057600080fd5b8101908080359060200190929190505050611233565b6040518082815260200191505060405180910390f35b3480156106e857600080fd5b50610715600480360360208110156106ff57600080fd5b8101908080359060200190929190505050611250565b6040518082815260200191505060405180910390f35b34801561073757600080fd5b506107846004803603604081101561074e57600080fd5b8101908080359060200190929190803573ffffffffffffffffffffffffffffffffffffffff16906020019092919050505061126d565b604051808215151515815260200191505060405180910390f35b3480156107aa57600080fd5b506107e1600480360360408110156107c157600080fd5b81019080803590602001909291908035906020019092919050505061128d565b6040518082600560200280838360005b8381101561080c5780820151818401526020810190506107f1565b5050505090500191505060405180910390f35b34801561082b57600080fd5b5061086e6004803603602081101561084257600080fd5b81019080803573ffffffffffffffffffffffffffffffffffffffff1690602001909291905050506112b3565b6040518082815260200191505060405180910390f35b34801561089057600080fd5b506108d3600480360360208110156108a757600080fd5b81019080803573ffffffffffffffffffffffffffffffffffffffff169060200190929190505050611398565b604051808381526020018281526020019250505060405180910390f35b3480156108fc57600080fd5b506109336004803603604081101561091357600080fd5b8101908080359060200190929190803590602001909291905050506113b8565b6040518082815260200191505060405180910390f35b34801561095557600080fd5b5061098c6004803603604081101561096c57600080fd5b8101908080359060200190929190803590602001909291905050506113d8565b6040518082815260200191505060405180910390f35b3480156109ae57600080fd5b506109e5600480360360408110156109c557600080fd5b8101908080359060200190929190803590602001909291905050506113f8565b6040518082815260200191505060405180910390f35b348015610a0757600080fd5b50610a5460048036036040811015610a1e57600080fd5b81019080803573ffffffffffffffffffffffffffffffffffffffff16906020019092919080359060200190929190505050611418565b604051808215151515815260200191505060405180910390f35b348015610a7a57600080fd5b50610a83611506565b6040518087815260200186815260200185815260200180602001848152602001838152602001828103825285818151815260200191508051906020019080838360005b83811015610ae1578082015181840152602081019050610ac6565b50505050905090810190601f168015610b0e5780820380516001836020036101000a031916815260200191505b5097505050505050505060405180910390f35b348015610b2d57600080fd5b50610b7a60048036036040811015610b4457600080fd5b8101908080359060200190929190803573ffffffffffffffffffffffffffffffffffffffff16906020019092919050505061152e565b604051808215151515815260200191505060405180910390f35b348015610ba057600080fd5b50610bcd60048036036020811015610bb757600080fd5b810190808035906020019092919050505061154e565b604051808a81526020018915151515815260200188151515158152602001871515151581526020018673ffffffffffffffffffffffffffffffffffffffff1673ffffffffffffffffffffffffffffffffffffffff1681526020018573ffffffffffffffffffffffffffffffffffffffff1673ffffffffffffffffffffffffffffffffffffffff1681526020018473ffffffffffffffffffffffffffffffffffffffff1673ffffffffffffffffffffffffffffffffffffffff16815260200183600960200280838360005b83811015610cb2578082015181840152602081019050610c97565b50505050905001828152602001995050505050505050505060405180910390f35b348015610cdf57600080fd5b50610ce8611596565b6040518082603360200280838360005b83811015610d13578082015181840152602081019050610cf8565b5050505090500191505060405180910390f35b348015610d3257600080fd5b50610d6960048036036040811015610d4957600080fd5b8101908080359060200190929190803590602001909291905050506115ad565b6040518082815260200191505060405180910390f35b348015610d8b57600080fd5b50610db860048036036020811015610da257600080fd5b81019080803590602001909291905050506115cd565b6040518082815260200191505060405180910390f35b348015610dda57600080fd5b50610e3d60048036036040811015610df157600080fd5b81019080803573ffffffffffffffffffffffffffffffffffffffff169060200190929190803573ffffffffffffffffffffffffffffffffffffffff1690602001909291905050506115ea565b6040518082815260200191505060405180910390f35b348015610e5f57600080fd5b50610e9660048036036040811015610e7657600080fd5b810190808035906020019092919080359060200190929190505050611704565b6040518082815260200191505060405180910390f35b348015610eb857600080fd5b50610ee560048036036020811015610ecf57600080fd5b8101908080359060200190929190505050611724565b604051808060200180602001878152602001868152602001858152602001848152602001838103835289818151815260200191508051906020019080838360005b83811015610f41578082015181840152602081019050610f26565b50505050905090810190601f168015610f6e5780820380516001836020036101000a031916815260200191505b50838103825288818151815260200191508051906020019080838360005b83811015610fa7578082015181840152602081019050610f8c565b50505050905090810190601f168015610fd45780820380516001836020036101000a031916815260200191505b509850505050505050505060405180910390f35b348015610ff457600080fd5b50610ffd611756565b60405180838152602001821515151581526020019250505060405180910390f35b600061103482600061176b90919063ffffffff16565b9050919050565b6110436129e2565b6110598383600061178b9092919063ffffffff16565b905092915050565b600061107782600061180190919063ffffffff16565b9050919050565b606061108a6000611841565b905090565b606061109b6000611880565b905090565b60006110ac60006118bf565b905090565b60008060606110c06000611913565b925092509250909192565b60006110e1826000611a4790919063ffffffff16565b9050919050565b6000806110ff836000611a6790919063ffffffff16565b91509150915091565b600061112083836000611ae29092919063ffffffff16565b905092915050565b600061113e826000611b2490919063ffffffff16565b9050919050565b60008073__$946cc509dcf4b4c97ecabc42418c409021$__63c6f7efe0909185856040518463ffffffff167c0100000000000000000000000000000000000000000000000000000000028152600401808481526020018373ffffffffffffffffffffffffffffffffffffffff1673ffffffffffffffffffffffffffffffffffffffff168152602001828152602001935050505060206040518083038186803b1580156111f057600080fd5b505af4158015611204573d6000803e3d6000fd5b505050506040513d602081101561121a57600080fd5b8101908080519060200190929190505050905092915050565b6000611249826000611b4a90919063ffffffff16565b9050919050565b6000611266826000611b6a90919063ffffffff16565b9050919050565b600061128583836000611b9a9092919063ffffffff16565b905092915050565b611295612a05565b6112ab83836000611c059092919063ffffffff16565b905092915050565b60008073__$946cc509dcf4b4c97ecabc42418c409021$__63f07528dd9091846040518363ffffffff167c0100000000000000000000000000000000000000000000000000000000028152600401808381526020018273ffffffffffffffffffffffffffffffffffffffff1673ffffffffffffffffffffffffffffffffffffffff1681526020019250505060206040518083038186803b15801561135657600080fd5b505af415801561136a573d6000803e3d6000fd5b505050506040513d602081101561138057600080fd5b81019080805190602001909291905050509050919050565b6000806113af836000611cb190919063ffffffff16565b91509150915091565b60006113d083836000611d499092919063ffffffff16565b905092915050565b60006113f083836000611d849092919063ffffffff16565b905092915050565b600061141083836000611db99092919063ffffffff16565b905092915050565b60008073__$946cc509dcf4b4c97ecabc42418c409021$__63b9290ca5909185856040518463ffffffff167c0100000000000000000000000000000000000000000000000000000000028152600401808481526020018373ffffffffffffffffffffffffffffffffffffffff1673ffffffffffffffffffffffffffffffffffffffff168152602001828152602001935050505060206040518083038186803b1580156114c357600080fd5b505af41580156114d7573d6000803e3d6000fd5b505050506040513d60208110156114ed57600080fd5b8101908080519060200190929190505050905092915050565b6000806000606060008061151a6000611dee565b955095509550955095509550909192939495565b6000611546838360006120f89092919063ffffffff16565b905092915050565b6000806000806000806000611561612a28565b60006115778a600061216690919063ffffffff16565b9850985098509850985098509850985098509193959799909294969850565b61159e612a4c565b6115a8600061253d565b905090565b60006115c58383600061258c9092919063ffffffff16565b905092915050565b60006115e38260006125c190919063ffffffff16565b9050919050565b60008073__$946cc509dcf4b4c97ecabc42418c409021$__63fade3342909185856040518463ffffffff167c0100000000000000000000000000000000000000000000000000000000028152600401808481526020018373ffffffffffffffffffffffffffffffffffffffff1673ffffffffffffffffffffffffffffffffffffffff1681526020018273ffffffffffffffffffffffffffffffffffffffff1673ffffffffffffffffffffffffffffffffffffffff168152602001935050505060206040518083038186803b1580156116c157600080fd5b505af41580156116d5573d6000803e3d6000fd5b505050506040513d60208110156116eb57600080fd5b8101908080519060200190929190505050905092915050565b600061171c838360006125e19092919063ffffffff16565b905092915050565b60608060008060008061174187600061261690919063ffffffff16565b95509550955095509550955091939550919395565b6000806117636000612875565b915091509091565b600082604201600083815260200190815260200160002054905092915050565b6117936129e2565b83604801600084815260200190815260200160002060090160008381526020019081526020016000206005806020026040519081016040528092919082600580156117f3576020028201915b8154815260200190600101908083116117df575b505050505090509392505050565b600082603f01600083815260200190815260200160002060009054906101000a900473ffffffffffffffffffffffffffffffffffffffff16905092915050565b60606040805190810160405280600281526020017f54540000000000000000000000000000000000000000000000000000000000008152509050919050565b60606040805190810160405280600981526020017f5a617020546f6b656e00000000000000000000000000000000000000000000008152509050919050565b600081604001600060405180807f746f74616c5f737570706c790000000000000000000000000000000000000000815250600c01905060405180910390208152602001908152602001600020549050919050565b6000806060600061192385612937565b905080856048016000838152602001908152602001600020600401600060405180807f746f74616c54697000000000000000000000000000000000000000000000000081525060080190506040518091039020815260200190815260200160002054866048016000848152602001908152602001600020600001808054600181600116156101000203166002900480601f016020809104026020016040519081016040528092919081815260200182805460018160011615610100020316600290048015611a325780601f10611a0757610100808354040283529160200191611a32565b820191906000526020600020905b815481529060010190602001808311611a1557829003601f168201915b50505050509050935093509350509193909250565b600082604901600083815260200190815260200160002054905092915050565b60008060008460480160008581526020019081526020016000209050600081600301805490501115611acf57611ac38585836003016001856003018054905003815481101515611ab357fe5b9060005260206000200154611db9565b60019250925050611adb565b60008081915092509250505b9250929050565b6000836048016000848152602001908152602001600020600701600083815260200190815260200160002060009054906101000a900460ff1690509392505050565b600082604801600083815260200190815260200160002060030180549050905092915050565b600082604001600083815260200190815260200160002054905092915050565b600060328211151515611b7c57600080fd5b82604301600083815260200190815260200160002054905092915050565b600083604101600084815260200190815260200160002060008373ffffffffffffffffffffffffffffffffffffffff1673ffffffffffffffffffffffffffffffffffffffff16815260200190815260200160002060009054906101000a900460ff1690509392505050565b611c0d612a05565b8360480160008481526020019081526020016000206008016000838152602001908152602001600020600580602002604051908101604052809291908260058015611ca3576020028201915b8160009054906101000a900473ffffffffffffffffffffffffffffffffffffffff1673ffffffffffffffffffffffffffffffffffffffff1681526020019060010190808311611c59575b505050505090509392505050565b6000808360470160008473ffffffffffffffffffffffffffffffffffffffff1673ffffffffffffffffffffffffffffffffffffffff168152602001908152602001600020600001548460470160008573ffffffffffffffffffffffffffffffffffffffff1673ffffffffffffffffffffffffffffffffffffffff16815260200190815260200160002060010154915091509250929050565b600083604801600084815260200190815260200160002060030182815481101515611d7057fe5b906000526020600020015490509392505050565b600083604401600084815260200190815260200160002060050160008381526020019081526020016000205490509392505050565b600083604801600084815260200190815260200160002060060160008381526020019081526020016000205490509392505050565b60008060006060600080866000015487604001600060405180807f63757272656e74526571756573744964000000000000000000000000000000008152506010019050604051809103902081526020019081526020016000205488604001600060405180807f646966666963756c747900000000000000000000000000000000000000000000815250600a01905060405180910390208152602001908152602001600020548960480160008b604001600060405180807f63757272656e74526571756573744964000000000000000000000000000000008152506010019050604051809103902081526020019081526020016000205481526020019081526020016000206000018a60480160008c604001600060405180807f63757272656e7452657175657374496400000000000000000000000000000000815250601001905060405180910390208152602001908152602001600020548152602001908152602001600020600401600060405180807f6772616e756c6172697479000000000000000000000000000000000000000000815250600b01905060405180910390208152602001908152602001600020548b60480160008d604001600060405180807f63757272656e7452657175657374496400000000000000000000000000000000815250601001905060405180910390208152602001908152602001600020548152602001908152602001600020600401600060405180807f746f74616c54697000000000000000000000000000000000000000000000000081525060080190506040518091039020815260200190815260200160002054828054600181600116156101000203166002900480601f0160208091040260200160405190810160405280929190818152602001828054600181600116156101000203166002900480156120dc5780601f106120b1576101008083540402835291602001916120dc565b820191906000526020600020905b8154815290600101906020018083116120bf57829003601f168201915b5050505050925095509550955095509550955091939550919395565b600083604401600084815260200190815260200160002060060160008373ffffffffffffffffffffffffffffffffffffffff1673ffffffffffffffffffffffffffffffffffffffff16815260200190815260200160002060009054906101000a900460ff1690509392505050565b6000806000806000806000612179612a28565b6000808b60440160008c8152602001908152602001600020905080600001548160020160009054906101000a900460ff168260020160019054906101000a900460ff168360020160029054906101000a900460ff168460020160039054906101000a900473ffffffffffffffffffffffffffffffffffffffff168560030160009054906101000a900473ffffffffffffffffffffffffffffffffffffffff168660040160009054906101000a900473ffffffffffffffffffffffffffffffffffffffff166101206040519081016040528089600501600060405180807f726571756573744964000000000000000000000000000000000000000000000081525060090190506040518091039020815260200190815260200160002054815260200189600501600060405180807f74696d657374616d70000000000000000000000000000000000000000000000081525060090190506040518091039020815260200190815260200160002054815260200189600501600060405180807f76616c756500000000000000000000000000000000000000000000000000000081525060050190506040518091039020815260200190815260200160002054815260200189600501600060405180807f6d696e457865637574696f6e446174650000000000000000000000000000000081525060100190506040518091039020815260200190815260200160002054815260200189600501600060405180807f6e756d6265724f66566f74657300000000000000000000000000000000000000815250600d0190506040518091039020815260200190815260200160002054815260200189600501600060405180807f626c6f636b4e756d626572000000000000000000000000000000000000000000815250600b0190506040518091039020815260200190815260200160002054815260200189600501600060405180807f6d696e6572536c6f74000000000000000000000000000000000000000000000081525060090190506040518091039020815260200190815260200160002054815260200189600501600060405180807f71756f72756d000000000000000000000000000000000000000000000000000081525060060190506040518091039020815260200190815260200160002054815260200189600501600060405180807f6665650000000000000000000000000000000000000000000000000000000000815250600301905060405180910390208152602001908152602001600020548152508860010154995099509950995099509950995099509950509295985092959850929598565b612545612a4c565b81600101603380602002604051908101604052809291908260338015612580576020028201915b81548152602001906001019080831161256c575b50505050509050919050565b600083604801600084815260200190815260200160002060050160008381526020019081526020016000205490509392505050565b600082604a01600083815260200190815260200160002054905092915050565b600083604801600084815260200190815260200160002060040160008381526020019081526020016000205490509392505050565b606080600080600080600088604801600089815260200190815260200160002090508060000181600101826002015483600401600060405180807f6772616e756c6172697479000000000000000000000000000000000000000000815250600b019050604051809103902081526020019081526020016000205484600401600060405180807f7265717565737451506f736974696f6e000000000000000000000000000000008152506010019050604051809103902081526020019081526020016000205485600401600060405180807f746f74616c54697000000000000000000000000000000000000000000000000081525060080190506040518091039020815260200190815260200160002054858054600181600116156101000203166002900480601f0160208091040260200160405190810160405280929190818152602001828054600181600116156101000203166002900480156127bb5780601f10612790576101008083540402835291602001916127bb565b820191906000526020600020905b81548152906001019060200180831161279e57829003601f168201915b50505050509550848054600181600116156101000203166002900480601f0160208091040260200160405190810160405280929190818152602001828054600181600116156101000203166002900480156128575780601f1061282c57610100808354040283529160200191612857565b820191906000526020600020905b81548152906001019060200180831161283a57829003601f168201915b50505050509450965096509650965096509650509295509295509295565b60008061292c8384604201600086604001600060405180807f74696d654f664c6173744e657756616c756500000000000000000000000000008152506012019050604051809103902081526020019081526020016000205481526020019081526020016000205485604001600060405180807f74696d654f664c6173744e657756616c7565000000000000000000000000000081525060120190506040518091039020815260200190815260200160002054611db9565b600191509150915091565b60008060006129848460010160338060200260405190810160405280929190826033801561297a576020028201915b815481526020019060010190808311612966575b50505050506129ab565b80925081935050508360430160008281526020019081526020016000205492505050919050565b60008060005b60338110156129dc5760208102840151808410156129d0578093508192505b506001810190506129b1565b50915091565b60a060405190810160405280600590602082028038833980820191505090505090565b60a060405190810160405280600590602082028038833980820191505090505090565b61012060405190810160405280600990602082028038833980820191505090505090565b6106606040519081016040528060339060208202803883398082019150509050509056fea165627a7a7230582077976eee8daf77f3168c019c65ecf15bc36d876d8be2b1afc258fae37f87803d0029",
  "linkReferences": {
    "contracts/libraries/ZapTransfer.sol": {
      "ZapTransfer": [
        {
          "length": 20,
          "start": 4458
        },
        {
          "length": 20,
          "start": 4824
        },
        {
          "length": 20,
          "start": 5181
        },
        {
          "length": 20,
          "start": 5647
        }
      ]
    }
  },
  "deployedLinkReferences": {
    "contracts/libraries/ZapTransfer.sol": {
      "ZapTransfer": [
        {
          "length": 20,
          "start": 4426
        },
        {
          "length": 20,
          "start": 4792
        },
        {
          "length": 20,
          "start": 5149
        },
        {
          "length": 20,
          "start": 5615
        }
      ]
    }
  }
}