{
  "_format": "hh-sol-artifact-1",
  "contractName": "ZapTransfer",
  "sourceName": "contracts/libraries/ZapTransfer.sol",
  "abi": [
    {
      "constant": false,
      "inputs": [
        {
          "name": "checkpoints",
          "type": "ZapStorage.Checkpoint[] storage"
        },
        {
          "name": "_value",
          "type": "uint256"
        }
      ],
      "name": "updateBalanceAtNow",
      "outputs": [],
      "payable": false,
      "stateMutability": "nonpayable",
      "type": "function"
    },
    {
      "constant": false,
      "inputs": [
        {
          "name": "self",
          "type": "ZapStorage.ZapStorageStruct storage"
        },
        {
          "name": "_spender",
          "type": "address"
        },
        {
          "name": "_amount",
          "type": "uint256"
        }
      ],
      "name": "approve",
      "outputs": [
        {
          "name": "",
          "type": "bool"
        }
      ],
      "payable": false,
      "stateMutability": "nonpayable",
      "type": "function"
    },
    {
      "constant": true,
      "inputs": [
        {
          "name": "checkpoints",
          "type": "ZapStorage.Checkpoint[] storage"
        },
        {
          "name": "_block",
          "type": "uint256"
        }
      ],
      "name": "getBalanceAt",
      "outputs": [
        {
          "name": "",
          "type": "uint256"
        }
      ],
      "payable": false,
      "stateMutability": "view",
      "type": "function"
    },
    {
      "constant": false,
      "inputs": [
        {
          "name": "self",
          "type": "ZapStorage.ZapStorageStruct storage"
        },
        {
          "name": "_to",
          "type": "address"
        },
        {
          "name": "_amount",
          "type": "uint256"
        }
      ],
      "name": "transfer",
      "outputs": [
        {
          "name": "success",
          "type": "bool"
        }
      ],
      "payable": false,
      "stateMutability": "nonpayable",
      "type": "function"
    },
    {
      "constant": false,
      "inputs": [
        {
          "name": "self",
          "type": "ZapStorage.ZapStorageStruct storage"
        },
        {
          "name": "_from",
          "type": "address"
        },
        {
          "name": "_to",
          "type": "address"
        },
        {
          "name": "_amount",
          "type": "uint256"
        }
      ],
      "name": "doTransfer",
      "outputs": [],
      "payable": false,
      "stateMutability": "nonpayable",
      "type": "function"
    },
    {
      "constant": true,
      "inputs": [
        {
          "name": "self",
          "type": "ZapStorage.ZapStorageStruct storage"
        },
        {
          "name": "_user",
          "type": "address"
        },
        {
          "name": "_amount",
          "type": "uint256"
        }
      ],
      "name": "allowedToTrade",
      "outputs": [
        {
          "name": "",
          "type": "bool"
        }
      ],
      "payable": false,
      "stateMutability": "view",
      "type": "function"
    },
    {
      "constant": true,
      "inputs": [
        {
          "name": "self",
          "type": "ZapStorage.ZapStorageStruct storage"
        },
        {
          "name": "_user",
          "type": "address"
        },
        {
          "name": "_blockNumber",
          "type": "uint256"
        }
      ],
      "name": "balanceOfAt",
      "outputs": [
        {
          "name": "",
          "type": "uint256"
        }
      ],
      "payable": false,
      "stateMutability": "view",
      "type": "function"
    },
    {
      "constant": false,
      "inputs": [
        {
          "name": "self",
          "type": "ZapStorage.ZapStorageStruct storage"
        },
        {
          "name": "_from",
          "type": "address"
        },
        {
          "name": "_to",
          "type": "address"
        },
        {
          "name": "_amount",
          "type": "uint256"
        }
      ],
      "name": "transferFrom",
      "outputs": [
        {
          "name": "success",
          "type": "bool"
        }
      ],
      "payable": false,
      "stateMutability": "nonpayable",
      "type": "function"
    },
    {
      "constant": true,
      "inputs": [
        {
          "name": "self",
          "type": "ZapStorage.ZapStorageStruct storage"
        },
        {
          "name": "_user",
          "type": "address"
        }
      ],
      "name": "balanceOf",
      "outputs": [
        {
          "name": "",
          "type": "uint256"
        }
      ],
      "payable": false,
      "stateMutability": "view",
      "type": "function"
    },
    {
      "constant": true,
      "inputs": [
        {
          "name": "self",
          "type": "ZapStorage.ZapStorageStruct storage"
        },
        {
          "name": "_user",
          "type": "address"
        },
        {
          "name": "_spender",
          "type": "address"
        }
      ],
      "name": "allowance",
      "outputs": [
        {
          "name": "",
          "type": "uint256"
        }
      ],
      "payable": false,
      "stateMutability": "view",
      "type": "function"
    },
    {
      "anonymous": false,
      "inputs": [
        {
          "indexed": true,
          "name": "_owner",
          "type": "address"
        },
        {
          "indexed": true,
          "name": "_spender",
          "type": "address"
        },
        {
          "indexed": false,
          "name": "_value",
          "type": "uint256"
        }
      ],
      "name": "Approval",
      "type": "event"
    },
    {
      "anonymous": false,
      "inputs": [
        {
          "indexed": true,
          "name": "_from",
          "type": "address"
        },
        {
          "indexed": true,
          "name": "_to",
          "type": "address"
        },
        {
          "indexed": false,
          "name": "_value",
          "type": "uint256"
        }
      ],
      "name": "Transfer",
      "type": "event"
    }
  ],
  "bytecode": "0x61109c610030600b82828239805160001a6073146000811461002057610022565bfe5b5030600052607381538281f3fe73000000000000000000000000000000000000000030146080604052600436106100b5576000357c0100000000000000000000000000000000000000000000000000000000900480632dfd8908146100ba5780637e781a9e146100ff57806382c1fecb1461017c5780639a07de1f146101c8578063a93a4d0314610245578063b9290ca5146102ca578063c6f7efe01461033a578063ed1034e2146103a6578063f07528dd14610443578063fade3342146104a5575b600080fd5b8180156100c657600080fd5b506100fd600480360360408110156100dd57600080fd5b810190808035906020019092919080359060200190929190505050610527565b005b81801561010b57600080fd5b506101626004803603606081101561012257600080fd5b8101908080359060200190929190803573ffffffffffffffffffffffffffffffffffffffff1690602001909291908035906020019092919050505061069c565b604051808215151515815260200191505060405180910390f35b6101b26004803603604081101561019257600080fd5b8101908080359060200190929190803590602001909291905050506107e3565b6040518082815260200191505060405180910390f35b8180156101d457600080fd5b5061022b600480360360608110156101eb57600080fd5b8101908080359060200190929190803573ffffffffffffffffffffffffffffffffffffffff169060200190929190803590602001909291905050506109f2565b604051808215151515815260200191505060405180910390f35b81801561025157600080fd5b506102c86004803603608081101561026857600080fd5b8101908080359060200190929190803573ffffffffffffffffffffffffffffffffffffffff169060200190929190803573ffffffffffffffffffffffffffffffffffffffff16906020019092919080359060200190929190505050610a0b565b005b610320600480360360608110156102e057600080fd5b8101908080359060200190929190803573ffffffffffffffffffffffffffffffffffffffff16906020019092919080359060200190929190505050610b9d565b604051808215151515815260200191505060405180910390f35b6103906004803603606081101561035057600080fd5b8101908080359060200190929190803573ffffffffffffffffffffffffffffffffffffffff16906020019092919080359060200190929190505050610cb5565b6040518082815260200191505060405180910390f35b8180156103b257600080fd5b50610429600480360360808110156103c957600080fd5b8101908080359060200190929190803573ffffffffffffffffffffffffffffffffffffffff169060200190929190803573ffffffffffffffffffffffffffffffffffffffff16906020019092919080359060200190929190505050610df4565b604051808215151515815260200191505060405180910390f35b61048f6004803603604081101561045957600080fd5b8101908080359060200190929190803573ffffffffffffffffffffffffffffffffffffffff169060200190929190505050610f27565b6040518082815260200191505060405180910390f35b610511600480360360608110156104bb57600080fd5b8101908080359060200190929190803573ffffffffffffffffffffffffffffffffffffffff169060200190929190803573ffffffffffffffffffffffffffffffffffffffff169060200190929190505050610f3c565b6040518082815260200191505060405180910390f35b60008280549050148061058957504382600184805490500381548110151561054b57fe5b9060005260206000200160000160009054906101000a90046fffffffffffffffffffffffffffffffff166fffffffffffffffffffffffffffffffff16105b15610638576000828380548091906001016105a49190610fdf565b8154811015156105b057fe5b906000526020600020019050438160000160006101000a8154816fffffffffffffffffffffffffffffffff02191690836fffffffffffffffffffffffffffffffff160217905550818160000160106101000a8154816fffffffffffffffffffffffffffffffff02191690836fffffffffffffffffffffffffffffffff16021790555050610698565b600082600184805490500381548110151561064f57fe5b906000526020600020019050818160000160106101000a8154816fffffffffffffffffffffffffffffffff02191690836fffffffffffffffffffffffffffffffff160217905550505b5050565b60006106a9843384610b9d565b15156106b457600080fd5b600073ffffffffffffffffffffffffffffffffffffffff168373ffffffffffffffffffffffffffffffffffffffff16141515156106f057600080fd5b818460460160003373ffffffffffffffffffffffffffffffffffffffff1673ffffffffffffffffffffffffffffffffffffffff16815260200190815260200160002060008573ffffffffffffffffffffffffffffffffffffffff1673ffffffffffffffffffffffffffffffffffffffff168152602001908152602001600020819055508273ffffffffffffffffffffffffffffffffffffffff163373ffffffffffffffffffffffffffffffffffffffff167f8c5be1e5ebec7d5bd14f71427d1e84f3dd0314c0f7b2291e5b200ac8c7c3b925846040518082815260200191505060405180910390a3600190509392505050565b600080838054905014156107fa57600090506109ec565b82600184805490500381548110151561080f57fe5b9060005260206000200160000160009054906101000a90046fffffffffffffffffffffffffffffffff166fffffffffffffffffffffffffffffffff16821015156108ab5782600184805490500381548110151561086857fe5b9060005260206000200160000160109054906101000a90046fffffffffffffffffffffffffffffffff166fffffffffffffffffffffffffffffffff1690506109ec565b8260008154811015156108ba57fe5b9060005260206000200160000160009054906101000a90046fffffffffffffffffffffffffffffffff166fffffffffffffffffffffffffffffffff1682101561090657600090506109ec565b60008090506000600185805490500390505b8181111561099d576000600260018484010181151561093357fe5b04905084868281548110151561094557fe5b9060005260206000200160000160009054906101000a90046fffffffffffffffffffffffffffffffff166fffffffffffffffffffffffffffffffff1611151561099057809250610997565b6001810391505b50610918565b84828154811015156109ab57fe5b9060005260206000200160000160109054906101000a90046fffffffffffffffffffffffffffffffff166fffffffffffffffffffffffffffffffff16925050505b92915050565b6000610a0084338585610a0b565b600190509392505050565b600081111515610a1a57600080fd5b600073ffffffffffffffffffffffffffffffffffffffff168273ffffffffffffffffffffffffffffffffffffffff1614151515610a5657600080fd5b610a61848483610b9d565b1515610a6c57600080fd5b6000610a79858543610cb5565b9050610ac78560450160008673ffffffffffffffffffffffffffffffffffffffff1673ffffffffffffffffffffffffffffffffffffffff168152602001908152602001600020838303610527565b610ad2858443610cb5565b90508082820110151515610ae557600080fd5b610b318560450160008573ffffffffffffffffffffffffffffffffffffffff1673ffffffffffffffffffffffffffffffffffffffff168152602001908152602001600020838301610527565b8273ffffffffffffffffffffffffffffffffffffffff168473ffffffffffffffffffffffffffffffffffffffff167fddf252ad1be2c89b69c2b068fc378daa952ba7f163c4a11628f55a4df523b3ef846040518082815260200191505060405180910390a35050505050565b6000808460470160008573ffffffffffffffffffffffffffffffffffffffff1673ffffffffffffffffffffffffffffffffffffffff168152602001908152602001600020600001541115610c7a576000610c6583610c5787604001600060405180807f7374616b65416d6f756e74000000000000000000000000000000000000000000815250600b0190506040518091039020815260200190815260200160002054610c498989610f27565b610fc690919063ffffffff16565b610fc690919063ffffffff16565b101515610c755760019050610cae565b610ca9565b6000610c9883610c8a8787610f27565b610fc690919063ffffffff16565b101515610ca85760019050610cae565b5b600090505b9392505050565b6000808460450160008573ffffffffffffffffffffffffffffffffffffffff1673ffffffffffffffffffffffffffffffffffffffff168152602001908152602001600020805490501480610d925750818460450160008573ffffffffffffffffffffffffffffffffffffffff1673ffffffffffffffffffffffffffffffffffffffff1681526020019081526020016000206000815481101515610d5457fe5b9060005260206000200160000160009054906101000a90046fffffffffffffffffffffffffffffffff166fffffffffffffffffffffffffffffffff16115b15610da05760009050610ded565b610dea8460450160008573ffffffffffffffffffffffffffffffffffffffff1673ffffffffffffffffffffffffffffffffffffffff168152602001908152602001600020836107e3565b90505b9392505050565b6000818560460160008673ffffffffffffffffffffffffffffffffffffffff1673ffffffffffffffffffffffffffffffffffffffff16815260200190815260200160002060003373ffffffffffffffffffffffffffffffffffffffff1673ffffffffffffffffffffffffffffffffffffffff1681526020019081526020016000205410151515610e8357600080fd5b818560460160008673ffffffffffffffffffffffffffffffffffffffff1673ffffffffffffffffffffffffffffffffffffffff16815260200190815260200160002060003373ffffffffffffffffffffffffffffffffffffffff1673ffffffffffffffffffffffffffffffffffffffff16815260200190815260200160002060008282540392505081905550610f1b85858585610a0b565b60019050949350505050565b6000610f34838343610cb5565b905092915050565b60008360460160008473ffffffffffffffffffffffffffffffffffffffff1673ffffffffffffffffffffffffffffffffffffffff16815260200190815260200160002060008373ffffffffffffffffffffffffffffffffffffffff1673ffffffffffffffffffffffffffffffffffffffff1681526020019081526020016000205490509392505050565b6000828211151515610fd457fe5b818303905092915050565b81548183558181111561100657818360005260206000209182019101611005919061100b565b5b505050565b61106d91905b8082111561106957600080820160006101000a8154906fffffffffffffffffffffffffffffffff02191690556000820160106101000a8154906fffffffffffffffffffffffffffffffff021916905550600101611011565b5090565b9056fea165627a7a72305820400c70f6a70517f5dda07aab201e2211eda1121c86799faa7585caa6a360dd4b0029",
  "linkReferences": {},
  "deployedLinkReferences": {}
}