{
  "contracts/libraries/ZapStake.sol": {
    "ZapStake": {
      "abi": [
        {
          "constant": false,
          "inputs": [
            {
              "name": "self",
              "type": "ZapStorage.ZapStorageStruct storage"
            }
          ],
          "name": "depositStake",
          "outputs": [],
          "payable": false,
          "stateMutability": "nonpayable",
          "type": "function"
        },
        {
          "constant": false,
          "inputs": [
            {
              "name": "self",
              "type": "ZapStorage.ZapStorageStruct storage"
            }
          ],
          "name": "requestStakingWithdraw",
          "outputs": [],
          "payable": false,
          "stateMutability": "nonpayable",
          "type": "function"
        },
        {
          "constant": false,
          "inputs": [
            {
              "name": "self",
              "type": "ZapStorage.ZapStorageStruct storage"
            }
          ],
          "name": "init",
          "outputs": [],
          "payable": false,
          "stateMutability": "nonpayable",
          "type": "function"
        },
        {
          "constant": false,
          "inputs": [
            {
              "name": "self",
              "type": "ZapStorage.ZapStorageStruct storage"
            }
          ],
          "name": "withdrawStake",
          "outputs": [],
          "payable": false,
          "stateMutability": "nonpayable",
          "type": "function"
        },
        {
          "anonymous": false,
          "inputs": [
            {
              "indexed": true,
              "name": "_sender",
              "type": "address"
            }
          ],
          "name": "NewStake",
          "type": "event"
        },
        {
          "anonymous": false,
          "inputs": [
            {
              "indexed": true,
              "name": "_sender",
              "type": "address"
            }
          ],
          "name": "StakeWithdrawn",
          "type": "event"
        },
        {
          "anonymous": false,
          "inputs": [
            {
              "indexed": true,
              "name": "_sender",
              "type": "address"
            }
          ],
          "name": "StakeWithdrawRequested",
          "type": "event"
        }
      ],
      "devdoc": {
        "details": "Contais the methods related to miners staking and unstaking. Zap.sol  references this library for function's logic.",
        "methods": {
          "depositStake(ZapStorage.ZapStorageStruct storage)": {
            "details": "This function allows miners to deposit their stake."
          },
          "init(ZapStorage.ZapStorageStruct storage)": {
            "details": "This function stakes the five initial miners, sets the supply and all the constant variables. This function is called by the constructor function on ZapMaster.sol"
          },
          "requestStakingWithdraw(ZapStorage.ZapStorageStruct storage)": {
            "details": "This function allows stakers to request to withdraw their stake (no longer stake) once they lock for withdraw(stakes.currentStatus = 2) they are locked for 7 days before they can withdraw the deposit"
          },
          "withdrawStake(ZapStorage.ZapStorageStruct storage)": {
            "details": "This function allows users to withdraw their stake after a 7 day waiting period from request "
          }
        },
        "title": "Zap Dispute"
      },
      "evm": {
        "bytecode": {
          "linkReferences": {
            "contracts/libraries/ZapDispute.sol": {
              "ZapDispute": [
                {
                  "length": 20,
                  "start": 416
                },
                {
                  "length": 20,
                  "start": 762
                }
              ]
            },
            "contracts/libraries/ZapTransfer.sol": {
              "ZapTransfer": [
                {
                  "length": 20,
                  "start": 1053
                },
                {
                  "length": 20,
                  "start": 1743
                },
                {
                  "length": 20,
                  "start": 3064
                }
              ]
            }
          },
          "object": "610ebc610030600b82828239805160001a6073146000811461002057610022565bfe5b5030600052607381538281f3fe7300000000000000000000000000000000000000003014608060405260043610610073576000357c010000000000000000000000000000000000000000000000000000000090048063326991a3146100785780633c734827146100b357806347b024eb146100ee57806378bfa27714610129575b600080fd5b81801561008457600080fd5b506100b16004803603602081101561009b57600080fd5b8101908080359060200190929190505050610164565b005b8180156100bf57600080fd5b506100ec600480360360208110156100d657600080fd5b81019080803590602001909291905050506101f4565b005b8180156100fa57600080fd5b506101276004803603602081101561011157600080fd5b8101908080359060200190929190505050610392565b005b81801561013557600080fd5b506101626004803603602081101561014c57600080fd5b8101908080359060200190929190505050610aaa565b005b61016e8133610b7b565b73__$a129b1b574282adaa6f30b90cf6e0e269c$__639264b888826040518263ffffffff167c01000000000000000000000000000000000000000000000000000000000281526004018082815260200191505060006040518083038186803b1580156101d957600080fd5b505af41580156101ed573d6000803e3d6000fd5b5050505050565b60008160470160003373ffffffffffffffffffffffffffffffffffffffff1673ffffffffffffffffffffffffffffffffffffffff16815260200190815260200160002090506001816000015414151561024c57600080fd5b60028160000181905550620151804281151561026457fe5b0642038160010181905550600182604001600060405180807f7374616b6572436f756e74000000000000000000000000000000000000000000815250600b019050604051809103902081526020019081526020016000206000828254039250508190555073__$a129b1b574282adaa6f30b90cf6e0e269c$__639264b888836040518263ffffffff167c01000000000000000000000000000000000000000000000000000000000281526004018082815260200191505060006040518083038186803b15801561033357600080fd5b505af4158015610347573d6000803e3d6000fd5b505050503373ffffffffffffffffffffffffffffffffffffffff167f453865710d0cb4b14ad25de371c860da196368895daa9662e5087711d14daecf60405160405180910390a25050565b600081604001600060405180807f646563696d616c73000000000000000000000000000000000000000000000000815250600801905060405180910390208152602001908152602001600020541415156103eb57600080fd5b73__$946cc509dcf4b4c97ecabc42418c409021$__632dfd89088260450160003073ffffffffffffffffffffffffffffffffffffffff1673ffffffffffffffffffffffffffffffffffffffff1681526020019081526020016000207ffffffffffffffffffffffffffffffffffffffffffffffebabd45ed5cc83fffff6040518363ffffffff167c0100000000000000000000000000000000000000000000000000000000028152600401808381526020018281526020019250505060006040518083038186803b1580156104be57600080fd5b505af41580156104d2573d6000803e3d6000fd5b505050506104de610e6d565b60c06040519081016040528073df3e18d64bc6a983f673ab319ccae4f1a57c709773ffffffffffffffffffffffffffffffffffffffff1673ffffffffffffffffffffffffffffffffffffffff16815260200173cd3b766ccdd6ae721141f452c550ca635964ce7173ffffffffffffffffffffffffffffffffffffffff1673ffffffffffffffffffffffffffffffffffffffff168152602001732546bcd3c84621e976d8185a91a922ae77ecec3073ffffffffffffffffffffffffffffffffffffffff1673ffffffffffffffffffffffffffffffffffffffff16815260200173bda5747bfd65f08deb54cb465eb87d40e51b197e73ffffffffffffffffffffffffffffffffffffffff1673ffffffffffffffffffffffffffffffffffffffff16815260200173dd2fd4581271e230360230f9337d5c0430bf44c073ffffffffffffffffffffffffffffffffffffffff1673ffffffffffffffffffffffffffffffffffffffff168152602001738626f6940e2eb28930efb4cef49b2d1f2c9c119973ffffffffffffffffffffffffffffffffffffffff1673ffffffffffffffffffffffffffffffffffffffff16815250905060008090505b60068110156107ac5773__$946cc509dcf4b4c97ecabc42418c409021$__632dfd890884604501600085856006811015156106cb57fe5b602002015173ffffffffffffffffffffffffffffffffffffffff1673ffffffffffffffffffffffffffffffffffffffff168152602001908152602001600020683635c9adc5dea000006040518363ffffffff167c0100000000000000000000000000000000000000000000000000000000028152600401808381526020018281526020019250505060006040518083038186803b15801561076b57600080fd5b505af415801561077f573d6000803e3d6000fd5b5050505061079f83838360068110151561079557fe5b6020020151610b7b565b8080600101915050610694565b5069014542ba12a337c0000082604001600060405180807f746f74616c5f737570706c790000000000000000000000000000000000000000815250600c0190506040518091039020815260200190815260200160002060008282540192505081905550601282604001600060405180807f646563696d616c730000000000000000000000000000000000000000000000008152506008019050604051809103902081526020019081526020016000208190555060c882604001600060405180807f7461726765744d696e6572730000000000000000000000000000000000000000815250600c0190506040518091039020815260200190815260200160002081905550683635c9adc5dea0000082604001600060405180807f7374616b65416d6f756e74000000000000000000000000000000000000000000815250600b01905060405180910390208152602001908152602001600020819055506834957444b840e8000082604001600060405180807f6469737075746546656500000000000000000000000000000000000000000000815250600a019050604051809103902081526020019081526020016000208190555061025882604001600060405180807f74696d6554617267657400000000000000000000000000000000000000000000815250600a019050604051809103902081526020019081526020016000208190555081604001600060405180807f74696d6554617267657400000000000000000000000000000000000000000000815250600a019050604051809103902081526020019081526020016000205442811515610a0557fe5b06420382604001600060405180807f74696d654f664c6173744e657756616c7565000000000000000000000000000081525060120190506040518091039020815260200190815260200160002081905550600182604001600060405180807f646966666963756c747900000000000000000000000000000000000000000000815250600a01905060405180910390208152602001908152602001600020819055505050565b60008160470160003373ffffffffffffffffffffffffffffffffffffffff1673ffffffffffffffffffffffffffffffffffffffff168152602001908152602001600020905062093a8081600101546201518042811515610b0657fe5b0642030310151515610b1757600080fd5b60028160000154141515610b2a57600080fd5b600081600001819055503373ffffffffffffffffffffffffffffffffffffffff167f4a7934670bd8304e7da22378be1368f7c4fef17c5aee81804beda8638fe428ec60405160405180910390a25050565b81604001600060405180807f7374616b65416d6f756e74000000000000000000000000000000000000000000815250600b019050604051809103902081526020019081526020016000205473__$946cc509dcf4b4c97ecabc42418c409021$__63f07528dd84846040518363ffffffff167c0100000000000000000000000000000000000000000000000000000000028152600401808381526020018273ffffffffffffffffffffffffffffffffffffffff1673ffffffffffffffffffffffffffffffffffffffff1681526020019250505060206040518083038186803b158015610c6557600080fd5b505af4158015610c79573d6000803e3d6000fd5b505050506040513d6020811015610c8f57600080fd5b810190808051906020019092919050505010151515610cad57600080fd5b60008260470160008373ffffffffffffffffffffffffffffffffffffffff1673ffffffffffffffffffffffffffffffffffffffff168152602001908152602001600020600001541480610d44575060028260470160008373ffffffffffffffffffffffffffffffffffffffff1673ffffffffffffffffffffffffffffffffffffffff16815260200190815260200160002060000154145b1515610d4f57600080fd5b600182604001600060405180807f7374616b6572436f756e74000000000000000000000000000000000000000000815250600b01905060405180910390208152602001908152602001600020600082825401925050819055506040805190810160405280600181526020016201518042811515610dc857fe5b0642038152508260470160008373ffffffffffffffffffffffffffffffffffffffff1673ffffffffffffffffffffffffffffffffffffffff16815260200190815260200160002060008201518160000155602082015181600101559050508073ffffffffffffffffffffffffffffffffffffffff167f46d8ab1385f70e5a3673e97c23c764f7600f7ed7a09b6687deae7131d51752e260405160405180910390a25050565b60c06040519081016040528060069060208202803883398082019150509050509056fea165627a7a72305820a23d78364c8f3ca93be681fa2e04a89793ad85fdfc16842c97bab9c9183ca0210029",
          "opcodes": "PUSH2 0xEBC PUSH2 0x30 PUSH1 0xB DUP3 DUP3 DUP3 CODECOPY DUP1 MLOAD PUSH1 0x0 BYTE PUSH1 0x73 EQ PUSH1 0x0 DUP2 EQ PUSH2 0x20 JUMPI PUSH2 0x22 JUMP JUMPDEST INVALID JUMPDEST POP ADDRESS PUSH1 0x0 MSTORE PUSH1 0x73 DUP2 MSTORE8 DUP3 DUP2 RETURN INVALID PUSH20 0x0 ADDRESS EQ PUSH1 0x80 PUSH1 0x40 MSTORE PUSH1 0x4 CALLDATASIZE LT PUSH2 0x73 JUMPI PUSH1 0x0 CALLDATALOAD PUSH29 0x100000000000000000000000000000000000000000000000000000000 SWAP1 DIV DUP1 PUSH4 0x326991A3 EQ PUSH2 0x78 JUMPI DUP1 PUSH4 0x3C734827 EQ PUSH2 0xB3 JUMPI DUP1 PUSH4 0x47B024EB EQ PUSH2 0xEE JUMPI DUP1 PUSH4 0x78BFA277 EQ PUSH2 0x129 JUMPI JUMPDEST PUSH1 0x0 DUP1 REVERT JUMPDEST DUP2 DUP1 ISZERO PUSH2 0x84 JUMPI PUSH1 0x0 DUP1 REVERT JUMPDEST POP PUSH2 0xB1 PUSH1 0x4 DUP1 CALLDATASIZE SUB PUSH1 0x20 DUP2 LT ISZERO PUSH2 0x9B JUMPI PUSH1 0x0 DUP1 REVERT JUMPDEST DUP2 ADD SWAP1 DUP1 DUP1 CALLDATALOAD SWAP1 PUSH1 0x20 ADD SWAP1 SWAP3 SWAP2 SWAP1 POP POP POP PUSH2 0x164 JUMP JUMPDEST STOP JUMPDEST DUP2 DUP1 ISZERO PUSH2 0xBF JUMPI PUSH1 0x0 DUP1 REVERT JUMPDEST POP PUSH2 0xEC PUSH1 0x4 DUP1 CALLDATASIZE SUB PUSH1 0x20 DUP2 LT ISZERO PUSH2 0xD6 JUMPI PUSH1 0x0 DUP1 REVERT JUMPDEST DUP2 ADD SWAP1 DUP1 DUP1 CALLDATALOAD SWAP1 PUSH1 0x20 ADD SWAP1 SWAP3 SWAP2 SWAP1 POP POP POP PUSH2 0x1F4 JUMP JUMPDEST STOP JUMPDEST DUP2 DUP1 ISZERO PUSH2 0xFA JUMPI PUSH1 0x0 DUP1 REVERT JUMPDEST POP PUSH2 0x127 PUSH1 0x4 DUP1 CALLDATASIZE SUB PUSH1 0x20 DUP2 LT ISZERO PUSH2 0x111 JUMPI PUSH1 0x0 DUP1 REVERT JUMPDEST DUP2 ADD SWAP1 DUP1 DUP1 CALLDATALOAD SWAP1 PUSH1 0x20 ADD SWAP1 SWAP3 SWAP2 SWAP1 POP POP POP PUSH2 0x392 JUMP JUMPDEST STOP JUMPDEST DUP2 DUP1 ISZERO PUSH2 0x135 JUMPI PUSH1 0x0 DUP1 REVERT JUMPDEST POP PUSH2 0x162 PUSH1 0x4 DUP1 CALLDATASIZE SUB PUSH1 0x20 DUP2 LT ISZERO PUSH2 0x14C JUMPI PUSH1 0x0 DUP1 REVERT JUMPDEST DUP2 ADD SWAP1 DUP1 DUP1 CALLDATALOAD SWAP1 PUSH1 0x20 ADD SWAP1 SWAP3 SWAP2 SWAP1 POP POP POP PUSH2 0xAAA JUMP JUMPDEST STOP JUMPDEST PUSH2 0x16E DUP2 CALLER PUSH2 0xB7B JUMP JUMPDEST PUSH20 0x0 PUSH4 0x9264B888 DUP3 PUSH1 0x40 MLOAD DUP3 PUSH4 0xFFFFFFFF AND PUSH29 0x100000000000000000000000000000000000000000000000000000000 MUL DUP2 MSTORE PUSH1 0x4 ADD DUP1 DUP3 DUP2 MSTORE PUSH1 0x20 ADD SWAP2 POP POP PUSH1 0x0 PUSH1 0x40 MLOAD DUP1 DUP4 SUB DUP2 DUP7 DUP1 EXTCODESIZE ISZERO DUP1 ISZERO PUSH2 0x1D9 JUMPI PUSH1 0x0 DUP1 REVERT JUMPDEST POP GAS DELEGATECALL ISZERO DUP1 ISZERO PUSH2 0x1ED JUMPI RETURNDATASIZE PUSH1 0x0 DUP1 RETURNDATACOPY RETURNDATASIZE PUSH1 0x0 REVERT JUMPDEST POP POP POP POP POP JUMP JUMPDEST PUSH1 0x0 DUP2 PUSH1 0x47 ADD PUSH1 0x0 CALLER PUSH20 0xFFFFFFFFFFFFFFFFFFFFFFFFFFFFFFFFFFFFFFFF AND PUSH20 0xFFFFFFFFFFFFFFFFFFFFFFFFFFFFFFFFFFFFFFFF AND DUP2 MSTORE PUSH1 0x20 ADD SWAP1 DUP2 MSTORE PUSH1 0x20 ADD PUSH1 0x0 KECCAK256 SWAP1 POP PUSH1 0x1 DUP2 PUSH1 0x0 ADD SLOAD EQ ISZERO ISZERO PUSH2 0x24C JUMPI PUSH1 0x0 DUP1 REVERT JUMPDEST PUSH1 0x2 DUP2 PUSH1 0x0 ADD DUP2 SWAP1 SSTORE POP PUSH3 0x15180 TIMESTAMP DUP2 ISZERO ISZERO PUSH2 0x264 JUMPI INVALID JUMPDEST MOD TIMESTAMP SUB DUP2 PUSH1 0x1 ADD DUP2 SWAP1 SSTORE POP PUSH1 0x1 DUP3 PUSH1 0x40 ADD PUSH1 0x0 PUSH1 0x40 MLOAD DUP1 DUP1 PUSH32 0x7374616B6572436F756E74000000000000000000000000000000000000000000 DUP2 MSTORE POP PUSH1 0xB ADD SWAP1 POP PUSH1 0x40 MLOAD DUP1 SWAP2 SUB SWAP1 KECCAK256 DUP2 MSTORE PUSH1 0x20 ADD SWAP1 DUP2 MSTORE PUSH1 0x20 ADD PUSH1 0x0 KECCAK256 PUSH1 0x0 DUP3 DUP3 SLOAD SUB SWAP3 POP POP DUP2 SWAP1 SSTORE POP PUSH20 0x0 PUSH4 0x9264B888 DUP4 PUSH1 0x40 MLOAD DUP3 PUSH4 0xFFFFFFFF AND PUSH29 0x100000000000000000000000000000000000000000000000000000000 MUL DUP2 MSTORE PUSH1 0x4 ADD DUP1 DUP3 DUP2 MSTORE PUSH1 0x20 ADD SWAP2 POP POP PUSH1 0x0 PUSH1 0x40 MLOAD DUP1 DUP4 SUB DUP2 DUP7 DUP1 EXTCODESIZE ISZERO DUP1 ISZERO PUSH2 0x333 JUMPI PUSH1 0x0 DUP1 REVERT JUMPDEST POP GAS DELEGATECALL ISZERO DUP1 ISZERO PUSH2 0x347 JUMPI RETURNDATASIZE PUSH1 0x0 DUP1 RETURNDATACOPY RETURNDATASIZE PUSH1 0x0 REVERT JUMPDEST POP POP POP POP CALLER PUSH20 0xFFFFFFFFFFFFFFFFFFFFFFFFFFFFFFFFFFFFFFFF AND PUSH32 0x453865710D0CB4B14AD25DE371C860DA196368895DAA9662E5087711D14DAECF PUSH1 0x40 MLOAD PUSH1 0x40 MLOAD DUP1 SWAP2 SUB SWAP1 LOG2 POP POP JUMP JUMPDEST PUSH1 0x0 DUP2 PUSH1 0x40 ADD PUSH1 0x0 PUSH1 0x40 MLOAD DUP1 DUP1 PUSH32 0x646563696D616C73000000000000000000000000000000000000000000000000 DUP2 MSTORE POP PUSH1 0x8 ADD SWAP1 POP PUSH1 0x40 MLOAD DUP1 SWAP2 SUB SWAP1 KECCAK256 DUP2 MSTORE PUSH1 0x20 ADD SWAP1 DUP2 MSTORE PUSH1 0x20 ADD PUSH1 0x0 KECCAK256 SLOAD EQ ISZERO ISZERO PUSH2 0x3EB JUMPI PUSH1 0x0 DUP1 REVERT JUMPDEST PUSH20 0x0 PUSH4 0x2DFD8908 DUP3 PUSH1 0x45 ADD PUSH1 0x0 ADDRESS PUSH20 0xFFFFFFFFFFFFFFFFFFFFFFFFFFFFFFFFFFFFFFFF AND PUSH20 0xFFFFFFFFFFFFFFFFFFFFFFFFFFFFFFFFFFFFFFFF AND DUP2 MSTORE PUSH1 0x20 ADD SWAP1 DUP2 MSTORE PUSH1 0x20 ADD PUSH1 0x0 KECCAK256 PUSH32 0xFFFFFFFFFFFFFFFFFFFFFFFFFFFFFFFFFFFFFFFFFFFFFEBABD45ED5CC83FFFFF PUSH1 0x40 MLOAD DUP4 PUSH4 0xFFFFFFFF AND PUSH29 0x100000000000000000000000000000000000000000000000000000000 MUL DUP2 MSTORE PUSH1 0x4 ADD DUP1 DUP4 DUP2 MSTORE PUSH1 0x20 ADD DUP3 DUP2 MSTORE PUSH1 0x20 ADD SWAP3 POP POP POP PUSH1 0x0 PUSH1 0x40 MLOAD DUP1 DUP4 SUB DUP2 DUP7 DUP1 EXTCODESIZE ISZERO DUP1 ISZERO PUSH2 0x4BE JUMPI PUSH1 0x0 DUP1 REVERT JUMPDEST POP GAS DELEGATECALL ISZERO DUP1 ISZERO PUSH2 0x4D2 JUMPI RETURNDATASIZE PUSH1 0x0 DUP1 RETURNDATACOPY RETURNDATASIZE PUSH1 0x0 REVERT JUMPDEST POP POP POP POP PUSH2 0x4DE PUSH2 0xE6D JUMP JUMPDEST PUSH1 0xC0 PUSH1 0x40 MLOAD SWAP1 DUP2 ADD PUSH1 0x40 MSTORE DUP1 PUSH20 0xDF3E18D64BC6A983F673AB319CCAE4F1A57C7097 PUSH20 0xFFFFFFFFFFFFFFFFFFFFFFFFFFFFFFFFFFFFFFFF AND PUSH20 0xFFFFFFFFFFFFFFFFFFFFFFFFFFFFFFFFFFFFFFFF AND DUP2 MSTORE PUSH1 0x20 ADD PUSH20 0xCD3B766CCDD6AE721141F452C550CA635964CE71 PUSH20 0xFFFFFFFFFFFFFFFFFFFFFFFFFFFFFFFFFFFFFFFF AND PUSH20 0xFFFFFFFFFFFFFFFFFFFFFFFFFFFFFFFFFFFFFFFF AND DUP2 MSTORE PUSH1 0x20 ADD PUSH20 0x2546BCD3C84621E976D8185A91A922AE77ECEC30 PUSH20 0xFFFFFFFFFFFFFFFFFFFFFFFFFFFFFFFFFFFFFFFF AND PUSH20 0xFFFFFFFFFFFFFFFFFFFFFFFFFFFFFFFFFFFFFFFF AND DUP2 MSTORE PUSH1 0x20 ADD PUSH20 0xBDA5747BFD65F08DEB54CB465EB87D40E51B197E PUSH20 0xFFFFFFFFFFFFFFFFFFFFFFFFFFFFFFFFFFFFFFFF AND PUSH20 0xFFFFFFFFFFFFFFFFFFFFFFFFFFFFFFFFFFFFFFFF AND DUP2 MSTORE PUSH1 0x20 ADD PUSH20 0xDD2FD4581271E230360230F9337D5C0430BF44C0 PUSH20 0xFFFFFFFFFFFFFFFFFFFFFFFFFFFFFFFFFFFFFFFF AND PUSH20 0xFFFFFFFFFFFFFFFFFFFFFFFFFFFFFFFFFFFFFFFF AND DUP2 MSTORE PUSH1 0x20 ADD PUSH20 0x8626F6940E2EB28930EFB4CEF49B2D1F2C9C1199 PUSH20 0xFFFFFFFFFFFFFFFFFFFFFFFFFFFFFFFFFFFFFFFF AND PUSH20 0xFFFFFFFFFFFFFFFFFFFFFFFFFFFFFFFFFFFFFFFF AND DUP2 MSTORE POP SWAP1 POP PUSH1 0x0 DUP1 SWAP1 POP JUMPDEST PUSH1 0x6 DUP2 LT ISZERO PUSH2 0x7AC JUMPI PUSH20 0x0 PUSH4 0x2DFD8908 DUP5 PUSH1 0x45 ADD PUSH1 0x0 DUP6 DUP6 PUSH1 0x6 DUP2 LT ISZERO ISZERO PUSH2 0x6CB JUMPI INVALID JUMPDEST PUSH1 0x20 MUL ADD MLOAD PUSH20 0xFFFFFFFFFFFFFFFFFFFFFFFFFFFFFFFFFFFFFFFF AND PUSH20 0xFFFFFFFFFFFFFFFFFFFFFFFFFFFFFFFFFFFFFFFF AND DUP2 MSTORE PUSH1 0x20 ADD SWAP1 DUP2 MSTORE PUSH1 0x20 ADD PUSH1 0x0 KECCAK256 PUSH9 0x3635C9ADC5DEA00000 PUSH1 0x40 MLOAD DUP4 PUSH4 0xFFFFFFFF AND PUSH29 0x100000000000000000000000000000000000000000000000000000000 MUL DUP2 MSTORE PUSH1 0x4 ADD DUP1 DUP4 DUP2 MSTORE PUSH1 0x20 ADD DUP3 DUP2 MSTORE PUSH1 0x20 ADD SWAP3 POP POP POP PUSH1 0x0 PUSH1 0x40 MLOAD DUP1 DUP4 SUB DUP2 DUP7 DUP1 EXTCODESIZE ISZERO DUP1 ISZERO PUSH2 0x76B JUMPI PUSH1 0x0 DUP1 REVERT JUMPDEST POP GAS DELEGATECALL ISZERO DUP1 ISZERO PUSH2 0x77F JUMPI RETURNDATASIZE PUSH1 0x0 DUP1 RETURNDATACOPY RETURNDATASIZE PUSH1 0x0 REVERT JUMPDEST POP POP POP POP PUSH2 0x79F DUP4 DUP4 DUP4 PUSH1 0x6 DUP2 LT ISZERO ISZERO PUSH2 0x795 JUMPI INVALID JUMPDEST PUSH1 0x20 MUL ADD MLOAD PUSH2 0xB7B JUMP JUMPDEST DUP1 DUP1 PUSH1 0x1 ADD SWAP2 POP POP PUSH2 0x694 JUMP JUMPDEST POP PUSH10 0x14542BA12A337C00000 DUP3 PUSH1 0x40 ADD PUSH1 0x0 PUSH1 0x40 MLOAD DUP1 DUP1 PUSH32 0x746F74616C5F737570706C790000000000000000000000000000000000000000 DUP2 MSTORE POP PUSH1 0xC ADD SWAP1 POP PUSH1 0x40 MLOAD DUP1 SWAP2 SUB SWAP1 KECCAK256 DUP2 MSTORE PUSH1 0x20 ADD SWAP1 DUP2 MSTORE PUSH1 0x20 ADD PUSH1 0x0 KECCAK256 PUSH1 0x0 DUP3 DUP3 SLOAD ADD SWAP3 POP POP DUP2 SWAP1 SSTORE POP PUSH1 0x12 DUP3 PUSH1 0x40 ADD PUSH1 0x0 PUSH1 0x40 MLOAD DUP1 DUP1 PUSH32 0x646563696D616C73000000000000000000000000000000000000000000000000 DUP2 MSTORE POP PUSH1 0x8 ADD SWAP1 POP PUSH1 0x40 MLOAD DUP1 SWAP2 SUB SWAP1 KECCAK256 DUP2 MSTORE PUSH1 0x20 ADD SWAP1 DUP2 MSTORE PUSH1 0x20 ADD PUSH1 0x0 KECCAK256 DUP2 SWAP1 SSTORE POP PUSH1 0xC8 DUP3 PUSH1 0x40 ADD PUSH1 0x0 PUSH1 0x40 MLOAD DUP1 DUP1 PUSH32 0x7461726765744D696E6572730000000000000000000000000000000000000000 DUP2 MSTORE POP PUSH1 0xC ADD SWAP1 POP PUSH1 0x40 MLOAD DUP1 SWAP2 SUB SWAP1 KECCAK256 DUP2 MSTORE PUSH1 0x20 ADD SWAP1 DUP2 MSTORE PUSH1 0x20 ADD PUSH1 0x0 KECCAK256 DUP2 SWAP1 SSTORE POP PUSH9 0x3635C9ADC5DEA00000 DUP3 PUSH1 0x40 ADD PUSH1 0x0 PUSH1 0x40 MLOAD DUP1 DUP1 PUSH32 0x7374616B65416D6F756E74000000000000000000000000000000000000000000 DUP2 MSTORE POP PUSH1 0xB ADD SWAP1 POP PUSH1 0x40 MLOAD DUP1 SWAP2 SUB SWAP1 KECCAK256 DUP2 MSTORE PUSH1 0x20 ADD SWAP1 DUP2 MSTORE PUSH1 0x20 ADD PUSH1 0x0 KECCAK256 DUP2 SWAP1 SSTORE POP PUSH9 0x34957444B840E80000 DUP3 PUSH1 0x40 ADD PUSH1 0x0 PUSH1 0x40 MLOAD DUP1 DUP1 PUSH32 0x6469737075746546656500000000000000000000000000000000000000000000 DUP2 MSTORE POP PUSH1 0xA ADD SWAP1 POP PUSH1 0x40 MLOAD DUP1 SWAP2 SUB SWAP1 KECCAK256 DUP2 MSTORE PUSH1 0x20 ADD SWAP1 DUP2 MSTORE PUSH1 0x20 ADD PUSH1 0x0 KECCAK256 DUP2 SWAP1 SSTORE POP PUSH2 0x258 DUP3 PUSH1 0x40 ADD PUSH1 0x0 PUSH1 0x40 MLOAD DUP1 DUP1 PUSH32 0x74696D6554617267657400000000000000000000000000000000000000000000 DUP2 MSTORE POP PUSH1 0xA ADD SWAP1 POP PUSH1 0x40 MLOAD DUP1 SWAP2 SUB SWAP1 KECCAK256 DUP2 MSTORE PUSH1 0x20 ADD SWAP1 DUP2 MSTORE PUSH1 0x20 ADD PUSH1 0x0 KECCAK256 DUP2 SWAP1 SSTORE POP DUP2 PUSH1 0x40 ADD PUSH1 0x0 PUSH1 0x40 MLOAD DUP1 DUP1 PUSH32 0x74696D6554617267657400000000000000000000000000000000000000000000 DUP2 MSTORE POP PUSH1 0xA ADD SWAP1 POP PUSH1 0x40 MLOAD DUP1 SWAP2 SUB SWAP1 KECCAK256 DUP2 MSTORE PUSH1 0x20 ADD SWAP1 DUP2 MSTORE PUSH1 0x20 ADD PUSH1 0x0 KECCAK256 SLOAD TIMESTAMP DUP2 ISZERO ISZERO PUSH2 0xA05 JUMPI INVALID JUMPDEST MOD TIMESTAMP SUB DUP3 PUSH1 0x40 ADD PUSH1 0x0 PUSH1 0x40 MLOAD DUP1 DUP1 PUSH32 0x74696D654F664C6173744E657756616C75650000000000000000000000000000 DUP2 MSTORE POP PUSH1 0x12 ADD SWAP1 POP PUSH1 0x40 MLOAD DUP1 SWAP2 SUB SWAP1 KECCAK256 DUP2 MSTORE PUSH1 0x20 ADD SWAP1 DUP2 MSTORE PUSH1 0x20 ADD PUSH1 0x0 KECCAK256 DUP2 SWAP1 SSTORE POP PUSH1 0x1 DUP3 PUSH1 0x40 ADD PUSH1 0x0 PUSH1 0x40 MLOAD DUP1 DUP1 PUSH32 0x646966666963756C747900000000000000000000000000000000000000000000 DUP2 MSTORE POP PUSH1 0xA ADD SWAP1 POP PUSH1 0x40 MLOAD DUP1 SWAP2 SUB SWAP1 KECCAK256 DUP2 MSTORE PUSH1 0x20 ADD SWAP1 DUP2 MSTORE PUSH1 0x20 ADD PUSH1 0x0 KECCAK256 DUP2 SWAP1 SSTORE POP POP POP JUMP JUMPDEST PUSH1 0x0 DUP2 PUSH1 0x47 ADD PUSH1 0x0 CALLER PUSH20 0xFFFFFFFFFFFFFFFFFFFFFFFFFFFFFFFFFFFFFFFF AND PUSH20 0xFFFFFFFFFFFFFFFFFFFFFFFFFFFFFFFFFFFFFFFF AND DUP2 MSTORE PUSH1 0x20 ADD SWAP1 DUP2 MSTORE PUSH1 0x20 ADD PUSH1 0x0 KECCAK256 SWAP1 POP PUSH3 0x93A80 DUP2 PUSH1 0x1 ADD SLOAD PUSH3 0x15180 TIMESTAMP DUP2 ISZERO ISZERO PUSH2 0xB06 JUMPI INVALID JUMPDEST MOD TIMESTAMP SUB SUB LT ISZERO ISZERO ISZERO PUSH2 0xB17 JUMPI PUSH1 0x0 DUP1 REVERT JUMPDEST PUSH1 0x2 DUP2 PUSH1 0x0 ADD SLOAD EQ ISZERO ISZERO PUSH2 0xB2A JUMPI PUSH1 0x0 DUP1 REVERT JUMPDEST PUSH1 0x0 DUP2 PUSH1 0x0 ADD DUP2 SWAP1 SSTORE POP CALLER PUSH20 0xFFFFFFFFFFFFFFFFFFFFFFFFFFFFFFFFFFFFFFFF AND PUSH32 0x4A7934670BD8304E7DA22378BE1368F7C4FEF17C5AEE81804BEDA8638FE428EC PUSH1 0x40 MLOAD PUSH1 0x40 MLOAD DUP1 SWAP2 SUB SWAP1 LOG2 POP POP JUMP JUMPDEST DUP2 PUSH1 0x40 ADD PUSH1 0x0 PUSH1 0x40 MLOAD DUP1 DUP1 PUSH32 0x7374616B65416D6F756E74000000000000000000000000000000000000000000 DUP2 MSTORE POP PUSH1 0xB ADD SWAP1 POP PUSH1 0x40 MLOAD DUP1 SWAP2 SUB SWAP1 KECCAK256 DUP2 MSTORE PUSH1 0x20 ADD SWAP1 DUP2 MSTORE PUSH1 0x20 ADD PUSH1 0x0 KECCAK256 SLOAD PUSH20 0x0 PUSH4 0xF07528DD DUP5 DUP5 PUSH1 0x40 MLOAD DUP4 PUSH4 0xFFFFFFFF AND PUSH29 0x100000000000000000000000000000000000000000000000000000000 MUL DUP2 MSTORE PUSH1 0x4 ADD DUP1 DUP4 DUP2 MSTORE PUSH1 0x20 ADD DUP3 PUSH20 0xFFFFFFFFFFFFFFFFFFFFFFFFFFFFFFFFFFFFFFFF AND PUSH20 0xFFFFFFFFFFFFFFFFFFFFFFFFFFFFFFFFFFFFFFFF AND DUP2 MSTORE PUSH1 0x20 ADD SWAP3 POP POP POP PUSH1 0x20 PUSH1 0x40 MLOAD DUP1 DUP4 SUB DUP2 DUP7 DUP1 EXTCODESIZE ISZERO DUP1 ISZERO PUSH2 0xC65 JUMPI PUSH1 0x0 DUP1 REVERT JUMPDEST POP GAS DELEGATECALL ISZERO DUP1 ISZERO PUSH2 0xC79 JUMPI RETURNDATASIZE PUSH1 0x0 DUP1 RETURNDATACOPY RETURNDATASIZE PUSH1 0x0 REVERT JUMPDEST POP POP POP POP PUSH1 0x40 MLOAD RETURNDATASIZE PUSH1 0x20 DUP2 LT ISZERO PUSH2 0xC8F JUMPI PUSH1 0x0 DUP1 REVERT JUMPDEST DUP2 ADD SWAP1 DUP1 DUP1 MLOAD SWAP1 PUSH1 0x20 ADD SWAP1 SWAP3 SWAP2 SWAP1 POP POP POP LT ISZERO ISZERO ISZERO PUSH2 0xCAD JUMPI PUSH1 0x0 DUP1 REVERT JUMPDEST PUSH1 0x0 DUP3 PUSH1 0x47 ADD PUSH1 0x0 DUP4 PUSH20 0xFFFFFFFFFFFFFFFFFFFFFFFFFFFFFFFFFFFFFFFF AND PUSH20 0xFFFFFFFFFFFFFFFFFFFFFFFFFFFFFFFFFFFFFFFF AND DUP2 MSTORE PUSH1 0x20 ADD SWAP1 DUP2 MSTORE PUSH1 0x20 ADD PUSH1 0x0 KECCAK256 PUSH1 0x0 ADD SLOAD EQ DUP1 PUSH2 0xD44 JUMPI POP PUSH1 0x2 DUP3 PUSH1 0x47 ADD PUSH1 0x0 DUP4 PUSH20 0xFFFFFFFFFFFFFFFFFFFFFFFFFFFFFFFFFFFFFFFF AND PUSH20 0xFFFFFFFFFFFFFFFFFFFFFFFFFFFFFFFFFFFFFFFF AND DUP2 MSTORE PUSH1 0x20 ADD SWAP1 DUP2 MSTORE PUSH1 0x20 ADD PUSH1 0x0 KECCAK256 PUSH1 0x0 ADD SLOAD EQ JUMPDEST ISZERO ISZERO PUSH2 0xD4F JUMPI PUSH1 0x0 DUP1 REVERT JUMPDEST PUSH1 0x1 DUP3 PUSH1 0x40 ADD PUSH1 0x0 PUSH1 0x40 MLOAD DUP1 DUP1 PUSH32 0x7374616B6572436F756E74000000000000000000000000000000000000000000 DUP2 MSTORE POP PUSH1 0xB ADD SWAP1 POP PUSH1 0x40 MLOAD DUP1 SWAP2 SUB SWAP1 KECCAK256 DUP2 MSTORE PUSH1 0x20 ADD SWAP1 DUP2 MSTORE PUSH1 0x20 ADD PUSH1 0x0 KECCAK256 PUSH1 0x0 DUP3 DUP3 SLOAD ADD SWAP3 POP POP DUP2 SWAP1 SSTORE POP PUSH1 0x40 DUP1 MLOAD SWAP1 DUP2 ADD PUSH1 0x40 MSTORE DUP1 PUSH1 0x1 DUP2 MSTORE PUSH1 0x20 ADD PUSH3 0x15180 TIMESTAMP DUP2 ISZERO ISZERO PUSH2 0xDC8 JUMPI INVALID JUMPDEST MOD TIMESTAMP SUB DUP2 MSTORE POP DUP3 PUSH1 0x47 ADD PUSH1 0x0 DUP4 PUSH20 0xFFFFFFFFFFFFFFFFFFFFFFFFFFFFFFFFFFFFFFFF AND PUSH20 0xFFFFFFFFFFFFFFFFFFFFFFFFFFFFFFFFFFFFFFFF AND DUP2 MSTORE PUSH1 0x20 ADD SWAP1 DUP2 MSTORE PUSH1 0x20 ADD PUSH1 0x0 KECCAK256 PUSH1 0x0 DUP3 ADD MLOAD DUP2 PUSH1 0x0 ADD SSTORE PUSH1 0x20 DUP3 ADD MLOAD DUP2 PUSH1 0x1 ADD SSTORE SWAP1 POP POP DUP1 PUSH20 0xFFFFFFFFFFFFFFFFFFFFFFFFFFFFFFFFFFFFFFFF AND PUSH32 0x46D8AB1385F70E5A3673E97C23C764F7600F7ED7A09B6687DEAE7131D51752E2 PUSH1 0x40 MLOAD PUSH1 0x40 MLOAD DUP1 SWAP2 SUB SWAP1 LOG2 POP POP JUMP JUMPDEST PUSH1 0xC0 PUSH1 0x40 MLOAD SWAP1 DUP2 ADD PUSH1 0x40 MSTORE DUP1 PUSH1 0x6 SWAP1 PUSH1 0x20 DUP3 MUL DUP1 CODESIZE DUP4 CODECOPY DUP1 DUP3 ADD SWAP2 POP POP SWAP1 POP POP SWAP1 JUMP INVALID LOG1 PUSH6 0x627A7A723058 KECCAK256 LOG2 RETURNDATASIZE PUSH25 0x364C8F3CA93BE681FA2E04A89793AD85FDFC16842C97BAB9C9 XOR EXTCODECOPY LOG0 0x21 STOP 0x29 "
        },
        "gasEstimates": {
          "creation": {
            "codeDepositCost": "754400",
            "executionCost": "836",
            "totalCost": "755236"
          },
          "external": {
            "depositStake(ZapStorage.ZapStorageStruct storage)": "infinite",
            "init(ZapStorage.ZapStorageStruct storage)": "infinite",
            "requestStakingWithdraw(ZapStorage.ZapStorageStruct storage)": "infinite",
            "withdrawStake(ZapStorage.ZapStorageStruct storage)": "7088"
          },
          "internal": {
            "newStake(struct ZapStorage.ZapStorageStruct storage pointer,address)": "infinite"
          }
        },
        "methodIdentifiers": {
          "depositStake(ZapStorage.ZapStorageStruct storage)": "326991a3",
          "init(ZapStorage.ZapStorageStruct storage)": "47b024eb",
          "requestStakingWithdraw(ZapStorage.ZapStorageStruct storage)": "3c734827",
          "withdrawStake(ZapStorage.ZapStorageStruct storage)": "78bfa277"
        }
      },
      "userdoc": {
        "methods": {}
      }
    }
  }
}